:100000000200B2C00078B10000D8FCD00022C000CD
:10001000C001792D78A6D8FED9FADAF6D001D00041
:1000200022D2B3120003C2B322D2B2020033C2B250
:10003000020033A2E792B7A2E692B6A2E592B5A279
:10004000E492B4120021A2E392B7A2E292B6A2E136
:1000500092B5A2E092B412002122C2B3743312000E
:100060002E743312002E743212002E742812002EB9
:10007000740C12002E740112002E7A0212000E224D
:100080004E69636B20566F00313130353638393266
:1000900000202020202020202000E493A3600512CF
:1000A000002980F6227A6479FA7878D8FED9FADACB
:1000B000F62275817F12005A1200A5748012002E5C
:1000C00090008012009A74C012002E9000881200D6
:1000D0009A74C812002E90009112009A1200A57412
:1000E0008812002E90008012009A748012002E90C8
:1000F000008812009A74C012002E90009112009A8B
:100100001200A574C812002E90008012009A748804
:1001100012002E90008812009A748012002E900017
:100120009112009A1200A574C012002E9000801245
:10013000009A74C812002E90008812009A748812D7
:0B014000002E90009112009A0200B8FF
:00000001FF
