:10000000020003758176120127E582600302006F0A
:10001000780079007A007B007C007D00EC4D601C4C
:1000200088828983E493A3A882A9838A828B83F040
:10003000A3AA82AB831CBCFFE31D80E07582007520
:1000400083007C007D00EC4D600AE4F0A31CBCFF43
:10005000F51D80F27582007583007C007D00EC4DFB
:10006000600AE4F0A31CBCFFF51D80F21200BF1271
:10007000065D80FE506861736F7220566F6C74610C
:1000800067650025352E33662020202025352E3348
:100090006620202025352E336600567265662025A1
:1000A0002E3366205600567465737420252E3366F1
:1000B000205600505320252E3366206465670022A9
:1000C0008582E0A2E792A1D2A3A2A292F7C2A3A244
:1000D000E692A1D2A3A2A292F6C2A3A2E592A1D2D5
:1000E000A3A2A292F5C2A3A2E492A1D2A3A2A29239
:1000F000F4C2A3A2E392A1D2A3A2A292F3C2A3A2AA
:10010000E292A1D2A3A2A292F2C2A3A2E192A1D2B0
:10011000A3A2A292F1C2A3A2E092A1D2A3A2A29210
:10012000F0C2A385F0822275E60075E70075D6005F
:1001300075D70075CE0075CF0075C60075C7004332
:100140008780759852759B00759AF4759B1E75AEE5
:100150000075820022AA82C28C5389F0438901EA89
:1001600024FA5006EA24FBFA80027A018A117512F9
:100170000075130075140090FFEA74FFF5F0120B80
:10018000B3AA82AB83C28D8B047D008C8C7B008AEA
:100190008AD28C308DFD22AA82AB837C007D00C385
:1001A000EC9AED9B502B7E00BE0400501D7582FA28
:1001B000C002C003C004C005C006120155D006D05D
:1001C00005D004D003D0020E80DE0CBC00D10D801F
:1001D000CE22D2B3758228120155C2B322AA828AD6
:1001E000E0A2E792B7A2E692B6A2E592B5A2E492A7
:1001F000B4C0021201D2758228120155D0028AE0E1
:10020000A2E392B7A2E292B6A2E192B5A2E092B4C2
:100210000201D2AA82D2B28A821201DD90000202C9
:100220000197AA82C2B28A821201DD900005020102
:1002300097C2B3900014120197758233120222758F
:100240008233120222758232120222758228120231
:100250002275820C12022275820112022290001471
:10026000020197AA82AB83ACF07402B533047DC05F
:1002700080027D808D82C002C003C00412022290E1
:100280000005120197D004D003D0027D007E00ED5E
:100290002AFFEE3BF88C018F82888389F0120B973E
:1002A000FF60208F82C002C003C004C005C00612D8
:1002B0000213D006D005D004D003D0020DBD00CF6C
:1002C0000E80CC3000248D028E03C3EA9410EB64C0
:1002D0008094805015758220C002C003120213D092
:1002E00003D0020ABA00E30B80E022AA82C2A07502
:1002F0008201C0021200C0D002EAC454F0FA748035
:100300004AF5821200C0AA8274035AFC7B007582EF
:1003100000C003C0041200C0AA82D004D0037D0034
:10032000EA2BFBED3CFCD2A08B828C8322AA82AB11
:1003300083C002C003E4C0E0C0E0C0E07440C0E09D
:100340008534828535838536F0E537120EB6AC826A
:10035000AD83AEF0FFE58124FCF5818C828D838E28
:10036000F0EF120C5DAC82AD83D003D002EAC39CE7
:10037000FAEB9DFBC002C003C034C035C036C037A5
:1003800090000075F0B47443120EB6AC82AD83AE2B
:10039000F0FFE58124FCF581D003D0028A828B83B3
:1003A000C004C005C006C007120C21120CC1AA82ED
:1003B000AB83ACF0FDE58124FCF581C002C003C035
:1003C00004C005E4C0E0C0E07434C0E07443C0E0A1
:1003D0008A828B838CF0ED120C2DAE82E58124FC99
:1003E000F581D005D004D003D002EE7035C002C034
:1003F00003C004C005E4C0E0C0E07434C0E074C3CE
:10040000C0E08A828B838CF0ED120C91AE82E58184
:1004100024FCF581D005D004D003D002EE70030295
:1004200004D3C002C003C004C005E4C0E0C0E0744F
:1004300034C0E074C3C0E08A828B838CF0ED120C70
:1004400091AE82E58124FCF581D005D004D003D0A3
:1004500002EE6027E4C0E0C0E074B4C0E07443C0C2
:10046000E08A828B838CF0ED120D6FAA82AB83AC95
:10047000F0FDE58124FCF5810203BBC002C003C08E
:1004800004C005E4C0E0C0E07434C0E07443C0E0E0
:100490008A828B838CF0ED120C2DAE82E58124FCD8
:1004A000F581D005D004D003D002EE70030203BB67
:1004B000C002C003C004C00590000075F0B47443CE
:1004C000120E93AA82AB83ACF0FDE58124FCF5818A
:1004D0000203BB8A828B838CF0ED22858238858370
:1004E000397C007D007E007F00C28CC28D758A0041
:1004F000758C00A8388882C004C005C006C007C03B
:10050000001202EBA982AA83D000D007D006D00542
:10051000D004C3740299E49A40D98882C004C0050B
:10052000C006C007C0001202EBAA82AB83D000D085
:1005300007D006D005D004C3EA9404EB940040DA57
:10054000D28C8882C004C005C006C007C000120259
:10055000EBAA82AB83D000D007D006D005D004C36D
:1005600074029AE49B502F108D0280D6C000E4C024
:10057000E0C0E07480C0E0743FC0E08C828D838E68
:10058000F0EF120D6FAC82AD83AEF0FFE58124FC7D
:10059000F581D00080ACC28CC004C005C006C00785
:1005A00090000075F0807447120CC1AA82AB83AC36
:1005B000F0FDE58124FCF581858C82C002C003C07A
:1005C00004C005120D64AE82AF83A8F0F9C006C066
:1005D00007C000C00190000075F0807443120CC188
:1005E000AE82AF83A8F0F9E58124FCF581D005D077
:1005F00004D003D002C006C007C000C0018A828BAD
:10060000838CF0ED120D6FAA82AB83ACF0FDE58117
:1006100024FCF581AE8A7F008E828F83C002C003E6
:10062000C004C005120EA9AE82AF83A8F0F9D005B0
:10063000D004D003D002C006C007C000C0018A8227
:100640008B838CF0ED120D6FAA82AB83ACF0FDE5CD
:100650008124FCF5818A828B838CF0ED22754F20FA
:100660007550009001F4120197120231753301D2D6
:100670000090007475F0801202639000001204DB99
:10068000AA82AB83ACF0FDE4C0E074C0C0E074A803
:10069000C0E0744BC0E08A828B838CF0ED120EB602
:1006A00085825185835285F053F554E58124FCF50C
:1006B00081746FC0E07412C0E07483C0E0743AC00B
:1006C000E08551828552838553F0E554120C91AE3A
:1006D00082E58124FCF581EE600F9000001204DBBE
:1006E000AA82AB83ACF0FD809EC28CC28D758A005D
:1006F000758C007582001202EBAA82AB83C3740270
:100700009AE49B40EE7582001202EBAA82AB83C38F
:10071000EA9404EB940040EDC051C052C053C05461
:1007200090000075F0FA7443120CC1AA82AB83AC3E
:10073000F0FDE58124FCF5818A828B838CF0ED123B
:100740000E9EAA82AB83C002C0031201977582007D
:100750001202EB120C21AC82AD83AEF0FFC004C0DC
:1007600005C006C00790666675F0467440120CC15D
:10077000AC82AD83AEF0FFE58124FCF581E4C0E0FE
:1007800074C0C0E0747FC0E07444C0E08C828D838C
:100790008EF0EF120EB685823A85833B85F03CF5EC
:1007A0003DE58124FCF581C03AC03BC03CC03D9092
:1007B00004F375F0B5743F120CC185823A85833B12
:1007C00085F03CF53DE58124FCF581D003D002C2E3
:1007D0008CC28D758A00758C00754200754300755A
:1007E0004400754500758201C002C0031202EBACE3
:1007F00082AD83D003D002C374029CE49D40E675B1
:100800008201C002C0031202EBAC82AD83D003D0E0
:1008100002C3EC9404ED940040E58A828B831201BC
:10082000977582011202EB120C21AA82AB83ACF005
:10083000FDC002C003C004C005908F5C75F0427417
:1008400040120CC1AA82AB83ACF0FDE58124FCF51B
:1008500081E4C0E074C0C0E0747FC0E07444C0E0D4
:100860008A828B838CF0ED120EB685823E85833FA3
:1008700085F040F541E58124FCF581C03EC03FC0D4
:1008800040C0419004F375F0B5743F120CC18582ED
:100890003E85833F85F040F541E58124FCF581C22A
:1008A0008C7582001202EBE5828583F045F070F1D1
:1008B0007582001202EBE5828583F045F060F1D28B
:1008C0008C7582001202EBE5828583F045F060337F
:1008D000108D0280ECE4C0E0C0E07480C0E0743FA2
:1008E000C0E08542828543838544F0E545120D6F63
:1008F00085824285834385F044F545E58124FCF5F6
:100900008180BE7582001202EBE5828583F045F09E
:100910007033108D0280ECE4C0E0C0E07480C0E071
:10092000743FC0E08542828543838544F0E54512EB
:100930000D6F85824285834385F044F545E581242A
:10094000FCF58180BEC28CC042C043C044C045900B
:10095000000075F0807447120CC185825185835266
:1009600085F053F554E58124FCF581858C82120DC8
:1009700064AC82AD83AAF0FBC004C005C002C00312
:1009800090000075F0807443120CC1AA82AB83AC56
:10099000F0FDE58124FCF581C002C003C004C00560
:1009A0008551828552838553F0E554120D6F8582FF
:1009B0005185835285F053F554E58124FCF581AED1
:1009C0008A7F008E828F83120EA9AE82AF83AAF037
:1009D000FBC006C007C002C00385518285528385D3
:1009E00053F0E554120D6FAA82AB83ACF0FDE581A4
:1009F00024FCF581E4C0E074C0C0E074A8C0E074D9
:100A00004BC0E08A828B838CF0ED120EB6AA82ABCB
:100A100083ACF0FDE58124FCF581C002C003C00475
:100A2000C00590000075F0B47443120CC1AA82ABEB
:100A300083ACF0FDE58124FCF58174E1C0E0747ABB
:100A4000C0E0746EC0E07442C0E08A828B838CF098
:100A5000ED120EB6AA82AB83ACF0FDE58124FCF565
:100A600081C002C003C004C00590000075F0B474DA
:100A700043120CC185825185835285F053F554E5AC
:100A80008124FCF58174DBC0E0740FC0E07449C0C0
:100A9000E07440C0E08551828552838553F0E5546F
:100AA000120EB6AA82AB83ACF0FDE58124FCF58181
:100AB000C002C003C004C005C002C003C004C0051A
:100AC000C03EC03FC040C041C03AC03BC03CC03D3A
:100AD0007483C0E07400C0E07480C0E0120DDDE5F6
:100AE0008124F1F581C03AC03BC03CC03D749AC03E
:100AF000E07400C0E07480C0E07446C0E07400C0E0
:100B0000E07440C0E0120E4DE58124F6F5817533A6
:100B100002D20090004675F0401202639007D01296
:100B20000197C03EC03FC040C04174A6C0E0740001
:100B3000C0E07480C0E07449C0E07400C0E074405C
:100B4000C0E0120E4DE58124F6F581753302D20026
:100B500090004975F0401202639007D0120197741B
:100B6000B3C0E07400C0E07480C0E0744CC0E074B6
:100B700000C0E07440C0E0120E4DE58124F6F5811E
:100B8000753302D20090004C75F04012026390075A
:100B9000D012019702067A20F71430F6148883A841
:100BA0008220F507E6A88375830022E280F7E493AC
:100BB00022E022AAF0FBE5828511F0A4FCADF0E56D
:100BC000838511F0A42DFDE435F0FEE5828512F059
:100BD000A42DFDE5F03EFEE433FFEA8511F0A42EDE
:100BE000FEE5F03FFFE5838512F0A42EFEE5F03F21
:100BF000FFE5828513F0A42EFEE5F03FFFEB8511A3
:100C0000F0A42FFFEA8512F0A42FFFE5838513F0EF
:100C1000A42FFFE5828514F0A42F8EF08D838C82A3
:100C200022E4AC83AB82FAF9748E020FDEFFA88156
:100C30001818121006D2D133E6400730E70B758240
:100C4000012220E70675820022C2D1120FE8E97066
:100C500003F5822230D101B3E433F5822212103140
:100C6000700AE582458345F0700122E430D112F428
:100C7000700BE5F0F47006E58330E7012290800008
:100C800022700AE5F07006E58320E70122907FFFDD
:100C900022FFA8811818121006D2D133E64007307F
:100CA000E70B7582002220E70675820122C2D1126D
:100CB0000FE8E97003F5822220D101B3E433F58215
:100CC0002212110EBC00030210ADEF60FA30D50203
:100CD000B2D1E583B4FF030210C3E582B4FF03027F
:100CE00010C3258340072482400B0210AD248314D7
:100CF00050030210C3F582EA8DF0A4A8F0EA8EF04A
:100D0000A428F8E435F0F9EB8DF0A428E935F0F9E2
:100D1000E433CA8FF0A429F9EA35F0FAEBF88EF043
:100D2000A429F9EA35F0FAE433FBEC8DF0A429F9B3
:100D3000EA35F0FAE43BFBE88FF0A42AFAEB35F051
:100D4000FBE433CCFD8EF0A42AFAEB35F0FBE43C57
:100D5000FCED8FF0A42BFBEC35F0FC20E703121028
:100D6000DB02108CE4AC82FBFAF97486020FDE120F
:100D7000110E7900E583B58202800D500312113CFB
:100D8000E583C39582121156E5D0C465D020E117E2
:100D9000EA2DFAEB3EFBEC3FFC50097401121156B0
:100DA000EC4480FC02108CC3EA9DFAEB9EFBEC9FA6
:100DB000FC500FC3E499F9E49AFAE49BFBE49CFC31
:100DC000B2D11210DB02108C021B25858263858351
:100DD0006485F065851066900DC8021578C0088599
:100DE0008108E50824FBF566E50824FBF88663081E
:100DF0008664088665900DC8121578D00822AA82EC
:100E0000AB09AC0AAD0B8B828C838DF0EA121B3AD6
:100E10000509E4B50902050A2285820985830A8548
:100E2000F00B850C63850D64850E65850F66900D4E
:100E3000FE121578AA82AB83AC09AD0AAE0B8C8288
:100E40008D838EF0E4121B3A8A828B8322C0088540
:100E50008108E50824F8F566E50824FBF88609080A
:100E6000860A08860BE50824F8F886630886640875
:100E70008665900DFE121578AA82AB83AC09AD0A87
:100E8000AE0B8C828D838EF0E4121B3A8A828B83A8
:100E9000D00822A8811818C6B2E7C6020D6F7F8E4F
:100EA000121B55F58385F08222AC83AB827A0079E0
:100EB00000748E021B8312110E30D502B2D1BF0016
:100EC00009BC00030210D00210C3BC00030210AD25
:100ED000E583B4FF0BE582B4FF030210D00210AD2E
:100EE000E582B4FF030210C3C395835007247F40FB
:100EF0000B0210AD24801450030210C3C0E0E4CCF8
:100F0000CBCAF98D118E128F13EF54F0C4F51475FE
:100F100083068514F0EB84F582E9C4F9EAC4FAEBA0
:100F2000C4FBEC540FC47803D6FC18EBD6FB18EACC
:100F3000D6FA8582F0EDA4A8F0FD8582F0EEA42813
:100F4000FEE435F0F88582F0EFA428FFE435F0F8F0
:100F5000E99DF9EA9EFAEB9FFBEC98FCAD11AE120D
:100F6000AF1330E7101582E92DF9EA3EFAEB3FFBAB
:100F7000E43CFC80EDC082D58398C3E933F9EA33C1
:100F8000FAEB33FBEC33FCC3E99DEA9EEB9FEC9458
:100F900000B3E413F9D002D0E0C44AFAD003D0E0A1
:100FA000C44BFBD004D0E0F5F0540FC44CFCD0820D
:100FB000158230F40FD3EC13FCEB13FBEA13FAE9C0
:100FC00013F90582E930E70A74012AFAE43BFBE4ED
:100FD0003CFC0210A4FCABF0AA83A982749EC2D18F
:100FE000F5821210DB02108C7901AA82E68F82B59D
:100FF000821318E6B5F00E18E6B5830918E68A8262
:10100000B58202790022B4800FE5F0700AE58370A2
:1010100006E58270027F00EFB6801518B600101842
:10102000B6000B18B6000608080876002208080863
:1010300022121BA7C3749E95824039790012115663
:1010400030D126E9F42401F582EAF43400F583EB8B
:10105000F43400F5F0ECF43400700AE58245834581
:10106000F0700122E430E70F22EC20E71489828A35
:10107000838BF02230D10AE4F582F583F5F0748099
:101080002274FFF582F583F5F0747F22B98003EABC
:1010900013B34010EA2401FAE43BFBE43CFC5004A7
:1010A0007C800582BC000EBB000BBA0008E4F5F0A2
:1010B000F583F58222A2D1E582138CF092F78B831F
:1010C0008A8222E4F583F58275F080F4A2D113229E
:1010D000E4F583F58275F0C0747F227804EC70111A
:1010E000E58224F8500AF582E4C9CACBFCD8EF2285
:1010F000EC7820058220E713D5820122C3E933F979
:10110000EA33FAEB33FBEC33FCD8EA158222AA82ED
:10111000AB83A2F73392D16002D2F7F582ACF0E54F
:101120008124F9F8E6FD08E6FE0886F008E6A2F755
:101130003392D56002D2F7F583AFF022E582C58302
:10114000F582A2D133A2D592D11392D5ECCFFCEB8C
:10115000CEFBEACDFA226040F82582500274FFF5FA
:1011600082E824F8501ECCCBCAF9E4CC24F8501401
:10117000CBCAF9E4CB24F8500BCAF9E4CA24F850DE
:101180000379002224086010F8C3EC13FCEB13FB76
:10119000EA13FAE913F9D8F122AA8274AAC0E0741A
:1011A00011C0E0C055C0568A8222055CE4B55C02DD
:1011B000055D22AA8274302AFA24C6500A74072ACE
:1011C000FA3001034302208A82021199E582FAC4AF
:1011D000540FF582C0021211B3D002740F5AF58277
:1011E0000211B3AA57AB58AC59AD5AAE5B75622029
:1011F000EE2EFEED235401FF4206EA2AFAEB33FB02
:10120000EC33FCED33FDC3EE955E4008EEC3955E16
:10121000FE430201D562D98A578B588C598D5A8E5C
:101220005B227873E624D075F00AA4FA7874E62479
:10123000D02AFA78728603BB2D04C3E49AFA755E4D
:1012400001C3E464808AF063F08095F050297562F0
:10125000038A0374F62562401C055EE56214246768
:10126000F8E5622467F98704A604772E1BEBFA6081
:1012700004056280DE8B02EA30E70D786886037829
:1012800069A6037868762E0AE560600AE56004FBCB
:10129000255EF55E8005300C02055E78678603E406
:1012A000BB2D0104FB7006200703300802055E30E9
:1012B0000503021369300657EB600C75822DC002DE
:1012C000121199D002801C30070C75822BC00212BB
:1012D0001199D002800D30080A758220C0021211C7
:1012E00099D00278688604BC2E0C758230C0021238
:1012F0001199D002155FAC5F155FC3E55E9C40039A
:101300000213AD758230C002121199D00280E7AC91
:101310005F155FC3E55E9C500C758220C002121100
:1013200099D00280EA78678604BC2D0C75822DC0A6
:1013300002121199D002801C30070C75822BC0025A
:10134000121199D002800D30080A758220C0021255
:101350001199D00278688604BC2E52758230C00282
:10136000121199D002155F8044EB600E75822DC07A
:1013700002121199D002155F802030070E75822B62
:10138000C002121199D002155F800F30080C7582CF
:1013900020C002121199D002155F78688603BB2E17
:1013A0000C758230C002121199D002155F7562016E
:1013B000C20EE5622467F88603BB450302146ABBCC
:1013C0002E348A03C3E464808BF063F08095F05080
:1013D0000F758230C003121199D0031B8B0280E479
:1013E0008B02D20EE5607038200C0302146A7582FD
:1013F0002E1211998074300E278A03EB30E71FC339
:10140000E464808560F063F08095F0500C75823064
:10141000C003121199D00315600B8B0280DD8B0283
:10142000300E0EC3E464808560F063F08095F05068
:1014300021E5622467F886038B82C002121199D0DD
:1014400002300E0EE5622467F88603BB2E0280028E
:101450001560155FC3E464808560F063F08095F0EB
:101460004003200E0505620213B2C3E46480856068
:10147000F063F08095F0500A758230121199156072
:1014800080E830050FAA5F155FEA600875822012B8
:10149000119980F122E5607003300C0D740725600E
:1014A000FAE55FC39AF55F8006E55F24FAF55F759C
:1014B000620078678602BA2B0F20070C78677620C7
:1014C000200805756201055F200519AA5FC3E46461
:1014D000808AF063F08095F0500A7582201211998D
:1014E000155F80E7C20EE5622467F88602BA000243
:1014F0008069BA451F3001027665C3E46480856067
:10150000F063F08095F0500A7582301211991560E1
:1015100080E8D20EC3E5629402E433FA7014EA70F4
:101520000EC3E464808560F063F08095F040033082
:101530000E16E5622467F886028A82121199E56226
:1015400024FD50121560800E7402B56209300C063D
:1015500075822E12119905620214E6300519AA5FF0
:10156000C3E464808AF063F08095F0500A758220AD
:10157000121199155F80E722858255858356E4F51F
:101580005CF55DAA63AB64AC658A828B838CF012D8
:101590000B97FD74012AF563E43BF5648C65EDFA65
:1015A0007003021B1EBA25028003021B16C205C26D
:1015B00006C207C208C209C20AC20BC20CC202C2DA
:1015C00003C204755E00755F007560FFAB63AC64B9
:1015D000AD658B828C838DF0120B97FAA3AB82AC36
:1015E000838B638C648D65BA25078A82121199807A
:1015F000928A06BE3000402E8A06EE24C64027742A
:10160000FFB56013E55F75F00AA4FEEA24D02EF55D
:101610005F70BFD20680BBE56075F00AA4FEEA24C5
:10162000D02EF56080ACBA2E0A74FFB560A4756048
:1016300000809F8A06BE6100400E8A06EE24854027
:10164000075302DFD2018002C201BA20028075BABC
:1016500023030216D3BA2A030216D8BA2B02805FDC
:10166000BA2D028055BA4202805FBA430302171DA9
:10167000BA4403021858BA4503021872BA46030264
:10168000186EBA4703021876BA4903021858BA4CC2
:1016900002803BBA4E0302187ABA4F0302185FBAAF
:1016A00050030217F1BA5303021741BA5503021847
:1016B00064BA58030218690218A4D2050215D2D2DE
:1016C000070215D2D2080215D2D20A0215D2D20BC5
:1016D0000215D2D20C0215D274FFB56020300A0B6D
:1016E000E56614F88866865F0215D2E56624FEF882
:1016F00088668606088607188E5F0215D2300A0BA8
:10170000E56614F8886686600215D2E56624FEF860
:1017100088668606088607188E600215D2300A0A87
:10172000E56614F888668602800FE56624FEF88870
:10173000668603088604188B028A821211990218A1
:10174000A9E56624FDF888668603088604088605F0
:1017500018188B578C588D598B828C838DF0121CE6
:10176000D8AB82AC838B6174FFB560038561602068
:10177000051DC3E561955F5016E55FC39561F55F93
:10178000AB5F155FEB600875822012119980F185BF
:1017900057828558838559F0120B97FBFA6029AB65
:1017A000601560C3E464808BF063F08095F050189E
:1017B0008A82121199AB57AC58AD590BBB00010C82
:1017C0008B578C588D5980C72005030218A9C3E593
:1017D00061955F40030218A9E55FC39561F55FABB2
:1017E0005F155FEB70030218A975822012119980B2
:1017F000EEE56624FDF888668603088604088605FB
:1018000018188B578C588D59E559FB30E7047A43EB
:101810008013EB546060047A50800AEB30E6047A5F
:101820004980027A588A82C00212119975823A124E
:101830001199758230121199758278121199D0021E
:10184000BA4902800BBA500280068558821211CC28
:101850008557821211CC8051D209755E0A804A7573
:101860005E088045755E0A8040755E10803BD2023E
:101870008037D2038033D204802FE56624FDF888B8
:1018800066860308860408860518188B578C588DC1
:10189000598B828C838DF0E55C121B3AA3E55D12B7
:1018A0001B3A80058A821211992002062003033018
:1018B0000470E56624FCF8886686030886040886BA
:1018C000050886061818188B578C588D598E5AE5BE
:1018D00057E558E559E55A8B828C838DF0EE121B43
:1018E000B974FFB56003756006300427747F555ADC
:1018F000FB8B5BE55BEB2BFB8B5BE55930E7067401
:1019000001455BF55BE55B246840067499255B4007
:1019100002D203300306121495021583121222021A
:101920001583E55E70030215837B6C300A2BE56638
:1019300014F88866E6FC3395E0FDFEFF8C578D5861
:101940008E598F5A20095EAC577D007E007F008C37
:10195000578D588E598F5A804C300B1FE56624FCEA
:10196000F88866860408860508860608860718181B
:10197000188C578D588E598F5A802AE56624FEF8A8
:101980008866860408860518ED3395E0FEFF8C57BF
:101990008D588E598F5A20090CAC57AD587E007F58
:1019A000008E598F5A300C43E55745584559455AD2
:1019B00060397408B55E0C758230C003121199D07D
:1019C0000380287410B55E23758230C0031211990C
:1019D000D00330010C758278C003121199D00380B6
:1019E0000A758258C003121199D003300925AC57EB
:1019F000AD58AE59E55AFF30E717C3E49CFCE49DAF
:101A0000FDE49EFEE49FFF8C578D588E598F5A80BF
:101A100002C209756100D20D8B00755B00C0001217
:101A200011E3D000200D0DE55BC4FCE6FD4CF6187B
:101A300088038002A65B0561B20DE55745584559FC
:101A4000455A70D68803E55F7003755F0120061A5A
:101A5000200517E56104FCC3955F500E758220C018
:101A600003121199D003155F80E930090E75822D9C
:101A7000C003121199D003155F8024E56160203006
:101A8000070E75822BC003121199D003155F800FCA
:101A900030080C758220C003121199D003155F2005
:101AA000051EAC5F155FC3E5619C50273006047CC2
:101AB0003080027C208C82C003121199D00380E216
:101AC000C3E561955F5009E55FC39561F55F8003EC
:101AD000755F008B00AB611561EB6022B20D200DCC
:101AE0000A08E6C4540FFB8B5B80078603740F5B08
:101AF000F55B855B82C0001211B3D00080D7200552
:101B000003021583AB5F155FEB70030215837582CB
:101B10002012119980EE8A82121199021583855C38
:101B200082855D8322AA82BA0A0810990280FB7519
:101B3000990D10990280FB8A992220F71030F61136
:101B40008883A88220F507F6A88375830022F28097
:101B5000F7F0227F9E121BA730D1030210ADC3EF16
:101B60009582500974FFF5F0F583F5822279001211
:101B7000115689828A838BF0EC22FCABF0AA83A9F0
:101B800082749EF582C2D1EC30E716D2D1E9F424FA
:101B900001F9EAF43400FAEBF43400FBECF434001D
:101BA000FC1210DB02108CAA82AB83A2F73392D115
:101BB0006002D2F7F582ACF022C0E0F8458245839E
:101BC00045F07009F5F0FBFCFDFE021C87E823A23E
:101BD000F792E0F8A982AA83D2F7ABF07C007E07E7
:101BE000C3749798404074FF2EFE740A89F0A4F9DC
:101BF00085F082740A8AF0A4FA85F083740A8BF067
:101C0000A4FB740529F9EA3582FAEB3583FB7400ED
:101C100035F0FCC3EC13FCEB13FBEA13FAE913F900
:101C200008EC70EF80BAE8C3947FF88B838EF0E401
:101C3000FBFCFDFEFF08C3E933F9EA33FAE5833321
:101C4000F583EB3BD4FBEC3CD4FCED3DD4FDEE3E08
:101C5000D4FEEF3FD4FF602D05F074052BD4FBE4D8
:101C60003CD4FCE43DD4FDE43ED4FEE43FD4FF7517
:101C70008204C3EF13FFEE13FEED13FDEC13FCEB38
:101C800013FBD582EDD8AF7867D0E020E704762B40
:101C90008002762D087906E7C4540F4430F608B95F
:101CA0000603762E08E7540F4430F60819B902E708
:101CB000764508E5F020E704762B8004762DF404C1
:101CC0000875F00A844430F608E5F04430F608E47C
:101CD000F690006775F04022AA82AB83ACF07D00DD
:101CE0007E008A828B838CF0120B97FFA3AA82ABB3
:101CF00083EF60070DBD00EA0E80E78D828E8322A0
:00000001FF
