:100000000200037581BC1207DDE582600302006F08
:10001000780079007A007B007C007D00EC4D601C4C
:1000200088828983E493A3A882A9838A828B83F040
:10003000A3AA82AB831CBCFFE31D80E07582007520
:1000400083007C007D00EC4D600AE4F0A31CBCFF43
:10005000F51D80F27582007583007C007D00EC4DFB
:10006000600AE4F0A31CBCFFF51D80F21207DC124D
:100070000C1F80FE34417D0580344290058034435E
:10008000A305803444B705803445CA05803446DD75
:1000900005803447F005803448040680344917064B
:1000A00080344A2A0680344B3D0680344C51068009
:1000B000344D640680344E770680344F8A0680348F
:1000C000509E06803451B106803452C406803453A9
:1000D000D706803454EB06803461FE068034641306
:1000E0000780346528078034683D078034695207EB
:1000F00080346C670780346D7C0780347091078092
:100100003471A607803474BB07800000D00780904C
:100110000000E493F46018E5EFB41008E864A5600B
:100120000E020000540360F9781620B7F4D8FB756E
:10013000811002FA9C71D18E088F09AD1071385070
:1001400023E50DB40206AF09AE08712AE510601769
:1001500071C6AD07AF09AE0871310509E50970EC4C
:10016000050880E8750C412271D18E088F0971D184
:1001700075A72043CE08D3E5099FE5089E50148556
:100180000982850883E493F5CA0509E50970E70546
:100190000880E371D1C006C0077150D005D004EFCC
:1001A0006D7002EE6C6003750C4322715FE4F50E16
:1001B000F50F71AB71C6EF24D0F50D750C40B40787
:1001C00000505A90FABA25E07341C841D941E34141
:1001D000E341E741EB610171D1EF64427003EE64EA
:1001E00034603D750C42803871C68F0E71C68F0F1A
:1001F000802E5126802A5159802671C6AD077EFB7C
:100200007FFE713171C6AD077EFB7FFF71318010BB
:100210007F4071DE7800E4F675EF128003750C9074
:10022000AF0C71DE808C8F828E83850EB7850FB701
:10023000438F01EDF0538FFC22438F02E4FD6117E1
:10024000EDF46002711722C3EE94FA5010ED2FFF07
:10025000E43EFED3EF9400EE94FA500122C3224311
:10026000CE01AFCBEFFEADCBEDFFE4F5A722759746
:10027000DE7597AD43FF8075EF02E4F5A975A41014
:1002800075E10175E34075E4D0758E08758990D2EB
:100290008E2085FD3085FDC28EAF8DEFFEAD8BEDDE
:1002A000FFEEC313EF13F404F58D758920D28ED2BF
:1002B0009C223098FDC298AF992271A3BF24FB7194
:1002C000A3AE078E10EE600C71A3F582758300EF6C
:1002D000F01E80F122851082758300E0FF15102248
:1002E00071C68F0A71C68F0BAE0AAF0B22C2998FEF
:1002F000993099FD22FFFFFFFFFFFFFFFFFFFFFF88
:10030000FFFFFFFFFFFFFFFFFFFFFFFF90A5FF1BAA
:100310005B324A546869732070726F6772616D2036
:100320006C6F6164732074686520626F6F746C6FAA
:100330006164657220696E746F20612045464D3896
:100340004C4231207573696E6720616E20415438CC
:10035000394C5035315243322E0A42617365642064
:100360006F6E204379676E616C206170706C696399
:100370006174696F6E206E6F746520414E30323744
:1003800020616E642053696C69636F6E204C6162FA
:1003900073206170706C69636174696F6E206E6F39
:1003A000746520414E3132370A4279204A657375AF
:1003B000732043616C76696E6F2D467261676120B0
:1003C00028323030382D32303138290A000A507244
:1003D000657373207468652027424F4F542720624D
:1003E0007574746F6E2028636F6E6E6563746564D8
:1003F00020746F2050342E352920746F207374615F
:1004000072742E0A0A00436865636B696E67206622
:100410006F722045464D384C4231206D6963726FD2
:10042000636F6E74726F6C6C65722E2E2E000A45AF
:1004300052524F523A2045464D384C423120646565
:1004400076696365206E6F742070726573656E7473
:10045000210A0020446F6E652E0A00436865636BB5
:10046000696E6720666F72202573206D6963726FF5
:10047000636F6E74726F6C6C65722E2E2E000A455F
:1004800052524F523A202573206465766963652085
:100490006E6F742070726573656E7421202825302C
:1004A0003278290A0045726173696E672074686545
:1004B00020666C617368206D656D6F72792E2E2ECB
:1004C00000566572696679696E6720746861742088
:1004D00074686520666C617368206D656D6F7279F4
:1004E00020697320626C616E6B2E2E2E000A4552BD
:1004F000524F523A20666C617368206D656D6F7261
:1005000079206973206E6F7420626C616E6B2E208F
:1005100040253034783D253032780A00436F7079B9
:10052000696E6720626F6F746C6F616465722074AE
:100530006F20746172676574000A4552524F523AD7
:10054000204D656D6F727920666C617368206661FD
:10055000696C65642E0A000A0A5072657373207410
:1005600068652027424F4F542720627574746F6E60
:1005700020746F2066696E6973682E0A0045464DC7
:10058000384C423132463634455F51464E333200A4
:1005900045464D384C423132463634455F5146501F
:1005A00033320045464D384C423132463634455F91
:1005B00051534F5032340045464D384C423132464B
:1005C0003634455F51464E32340045464D384C4234
:1005D0003132463332455F51464E33320045464D47
:1005E000384C423132463332455F51465033320047
:1005F00045464D384C423132463332455F51534FB8
:100600005032340045464D384C4231324633324543
:100610005F51464E32340045464D384C42313146EA
:100620003332455F51464E33320045464D384C42D9
:100630003131463332455F51465033320045464DE5
:10064000384C423131463332455F51534F5032348A
:100650000045464D384C423131463332455F5146B4
:100660004E32340045464D384C42313146313645E4
:100670005F51464E33320045464D384C423131468B
:100680003136455F51465033320045464D384C4275
:100690003131463136455F51534F50323400454673
:1006A0004D384C423131463136455F51464E323439
:1006B0000045464D384C423130463136455F514653
:1006C0004E33320045464D384C4231304631364586
:1006D0005F51465033320045464D384C423130462A
:1006E0003136455F51534F5032340045464D384CFA
:1006F000423130463136455F51464E323400454630
:100700004D384C4231324636344553305F51464EB7
:1007100033320045464D384C42313246363445532B
:10072000305F51464E32340045464D384C423132EE
:100730004633324553305F51464E33320045464DC5
:10074000384C4231324633324553305F51464E3297
:10075000340045464D384C423131463332455330F2
:100760005F51464E33320045464D384C423131469A
:1007700033324553305F51464E32340045464D3892
:100780004C4231314631364553305F51464E33325B
:100790000045464D384C4231314631364553305F85
:1007A00051464E32340045464D384C423130463188
:1007B000364553305F51464E33320045464D384C36
:1007C0004231304631364553305F51464E32340067
:1007D000003C4E4F20464C4F41543E0022758E1136
:1007E000438780759852759B00759AF4759B1E75AA
:1007F000820022AA82C28C5389F0438901EA24FA3A
:100800005006EA24FBFA80027A018A1575160075F3
:10081000170075180090FFEA74FFF5F0120FCBAACD
:1008200082AB83C28D8B047D008C8C7B008A8AD244
:100830008C308DFD22AA82AB837C007D00C3EC9AB4
:10084000ED9B502B7E00BE0400501D7582FAC00245
:10085000C003C004C005C0061207F3D006D005D0FF
:1008600004D003D0020E80DE0CBC00D10D80CE225D
:10087000C2A0D2A0C2A143CF02C2A0D2A0D2A1C224
:10088000A0D2A053CFFD43A0027A007B00BB08009A
:100890005011EAC313FAC2A0D2A030A103430280D0
:1008A0000B80EAC2A0D2A08A8222AA82C2A0D2A0D1
:1008B000D2A143CF02C2A0D2A0D2A1C2A0D2A07B1B
:1008C00000BB0800500FEA1392A1C2A0D2A0EAC355
:1008D00013FA0B80EC53CFFD43A002C2A0D2A0229A
:1008E000C2A0D2A0C2A143CF02C2A0D2A0C2A1C2C4
:1008F000A0D2A0C2A1C2A0D2A0C2A1C2A0D2A05325
:10090000CFFD43A002C2A0D2A030A1F97A007B00A3
:10091000BB08005011EAC313FAC2A0D2A030A10351
:100920004302800B80EAC2A0D2A08A8222AA82C29D
:10093000A0D2A0D2A143CF02C2A0D2A0C2A1C2A085
:10094000D2A0C2A1C2A0D2A0C2A1C2A0D2A07B004C
:10095000BB0800500FEA1392A1C2A0D2A0EAC313B1
:10096000FA0B80EC53CFFD43A002C2A0D2A030A16D
:10097000F9C2A0D2A022C2A07582141207F3D2A09D
:10098000221208AA850C8212092D120870E5822015
:10099000E1F8221208AA1208E0AA82C00212087026
:1009A000E582D00220E1F48A822212097675820261
:1009B0001207F37582021208AA75820212092D75B8
:1009C000820112092D900014120835750C80758271
:1009D000FF1209817582051207F3750C027582EF0B
:1009E000120981750C007582A902098175820012B5
:1009F00008AA0208E07582011208AA0208E07582BE
:100A0000B41208AA75820612092D120870E5822018
:100A1000E1F8120870E58230E0F81208E0AA82BA24
:100A20000D02800475820022850A8212092D1208A7
:100A300070E58220E1F8AB098B8212092D12087053
:100A4000E58220E1F885088212092D120870E582FE
:100A500020E1F8120870E58230E0F81208E0AA827E
:100A6000BA0D028004758200227A00C3EA9508500C
:100A700021C002120870E582D00230E0F4A80BC059
:100A800002C0001208E0E582D000D002F6050B0A91
:100A900080D9758201227582B41208AA7582071264
:100AA000092D120870E58220E1F8120870E5823005
:100AB000E0F81208E0AA82BA0D02800475820022D2
:100AC000850A8212092D120870E58220E1F8AB092F
:100AD0008B8212092D120870E58220E1F8850882C8
:100AE00012092D120870E58220E1F8120870E582E3
:100AF00030E0F81208E0AA82BA0D02800475820084
:100B0000227A00C3EA9508501EA80B8603050B8BBA
:100B100082C00212092DD002C002120870E582D0F4
:100B20000220E1F40A80DC120870E58230E0F875FA
:100B3000820122E50AC313FAFB7C007D007E00C31C
:100B4000EB947EEC9400ED9400EE6480948040047D
:100B5000758200227582B4C0021208AA758208123A
:100B6000092DD002C002120870E582D00230E0F4F4
:100B7000C0021208E0AB82D002BB0D028004758275
:100B800000228A8212092D120870E58220E1F812F3
:100B90000870E58230E0F81208E0AB82BB0D0280FD
:100BA000047582002275820012092D120870E582F8
:100BB00020E1F8120870E58230E0F87582012275B4
:100BC00082B41208AA75820312092D120870E582F8
:100BD00020E1F8120870E58230E0F81208E0AA82FD
:100BE000BA0D028004758200227582DE12092D1270
:100BF0000870E58220E1F87582AD12092D120870A7
:100C0000E58220E1F87582A512092D120870E582AF
:100C100020E1F8120870E58230E0F8758201227454
:100C20000FC0E07403C0E07480C0E012112715818A
:100C30001581158174CDC0E07403C0E07480C0E0FC
:100C4000121127158115811581D2A4D2B6D2B743CE
:100C5000CF02C2A0C2A1D2A530C50CB2B6B2B79025
:100C6000012C12083580F1C2B6C2B7C2A590012C82
:100C700012083553CFFD43A002D2A030C5FDD2B635
:100C8000D2B71209761209ECAA827B00C002C00317
:100C90007406C0E07404C0E07480C0E0121127152F
:100CA0008115811581D003D002900079E493FC7DF9
:100CB00000EAB50406EBB50502801A742EC0E07494
:100CC00004C0E07480C0E0121127158115811581E0
:100CD000C2A4020FB67453C0E07404C0E07480C0B4
:100CE000E01211271581158115817582AD120993C6
:100CF000AC828C027B0090007BE493FCA3E493FD28
:100D0000A3E493FEC002C003C004C005C006745B28
:100D1000C0E07404C0E07480C0E0121127E58124B3
:100D2000FAF581D003D00290007AE493FC7D00EACA
:100D3000B50406EBB50502803290007BE493FCA37A
:100D4000E493FDA3E493FEC002C003C004C005C049
:100D500006747EC0E07404C0E07480C0E012112705
:100D6000E58124F8F581C2A4020FB67453C0E07483
:100D700004C0E07480C0E01211271581158115812F
:100D80001209761209AA74A5C0E07404C0E0748048
:100D9000C0E0121127158115811581120BBF745304
:100DA000C0E07404C0E07480C0E012112715811502
:100DB00081158174C1C0E07404C0E07480C0E01289
:100DC0001127158115811581750DE8750E03AE0D7E
:100DD000AF0E7C007D00C3EE94F0EF9403EC940022
:100DE000ED648094804003020E6F850D09E50E547A
:100DF00003A2E0C50913C50913A2E0C50913C5097B
:100E000013C509F50A750840750B371209FE7A00FB
:100E10007B007C007D00C3EC9440ED94005045ECD9
:100E20002437F88606BEFF02802F8E11751200EA65
:100E30002509FEEB350AFFC011C012C006C00774B9
:100E4000EDC0E07404C0E07480C0E0121127E581B9
:100E500024F9F581C2A4020FB60CBC00010D8C026E
:100E60008D0380B2050DE4B50D02050E020DCE74A2
:100E700053C0E07404C0E07480C0E01211271581F3
:100E800015811581741CC0E07405C0E07480C0E059
:100E90001211271581158115817AE87B03E4F50F7E
:100EA000F5108A068B077C007D00C3EE94F0EF946A
:100EB00003EC9400ED648094804003020F858A0463
:100EC000EB5403A2E0CC13CC13A2E0CC13CC13CC94
:100ED000FD8C098D0A750840AE0FE5105403A2E0A1
:100EE000CE13CE13A2E0CE13CE13CEFFEE240FFE10
:100EF000EF3401FF8E158F16751780751840E4F5D5
:100F00001990007775F040C002C003C004C00512FC
:100F100010BA750B77120A96D005D0048C098D0A89
:100F2000750840750B371209FE7515777516007533
:100F30001740751840E4F51990003775F04012100D
:100F400039E5828583F0D003D00245F06019743909
:100F5000C0E07405C0E07480C0E01211271581154F
:100F6000811581C2A4804F75822EC002C003121168
:100F700048D003D0020ABA00010B050FE4B50F02F6
:100F80000510020EA27453C0E07404C0E07480C067
:100F9000E01211271581158115817457C0E0740581
:100FA000C0E07480C0E0121127158115811581C23F
:100FB000B6C2B712097620C5FD900064120835301C
:100FC000C5FD900064120835020C34AAF0FBE582DE
:100FD0008515F0A4FCADF0E5838515F0A42DFDE4A6
:100FE00035F0FEE5828516F0A42DFDE5F03EFEE429
:100FF00033FFEA8515F0A42EFEE5F03FFFE583857B
:1010000016F0A42EFEE5F03FFFE5828517F0A42E32
:10101000FEE5F03FFFEB8515F0A42FFFEA8516F003
:10102000A42FFFE5838517F0A42FFFE5828518F034
:10103000A42F8EF08D838C822285821A85831B8556
:10104000F01CE5184519700490000022AD18AE1987
:101050001DBDFF011EED4E6036851A82851B8385FE
:101060001CF012115DFFA815A916AA1788828983A2
:101070008AF012115DFBEFB50315051AE4B51A02EB
:10108000051B740128F515E439F5168A1780C1850A
:101090001A82851B83851CF012115DFA7B00AC154A
:1010A000AD16AE178C828D838EF012115DFC7D0023
:1010B000EAC39CF582EB9DF58322AA82AB83ACF058
:1010C0008A1A8B1B8C1CA815A916AD17881D891EA2
:1010D0008D1FA818A9198805890618B8FF0119EDF0
:1010E0004E6025851D82851E83851FF012115DFDD2
:1010F000A385821D85831E8A828B838CF0ED12115D
:1011000079A3AA82AB8380CE851A82851B83851C36
:10111000F02202114885823085833185F0328514B2
:101120003390111202121BC013858113E51324FBA7
:10113000F533E51324FBF8863008863108863290B3
:10114000111212121BD01322AA82BA0A0810990295
:1011500080FB75990D10990280FB8A992220F71463
:1011600030F6148883A88220F507E6A883758300EB
:1011700022E280F7E49322E02220F71030F6118873
:1011800083A88220F507F6A88375830022F280F7F2
:10119000F022AA8274A3C0E07411C0E0C022C02370
:1011A0008A82220529E4B52902052A22AA827430FE
:1011B0002AFA24C6500A74072AFA30000343022090
:1011C0008A82021192E582FAC4540FF582C002129B
:1011D00011ACD002740F5AF5820211ACAA24AB25CF
:1011E000AC26AD27AE28752F20EE2EFEED23540140
:1011F000FF4206EA2AFAEB33FBEC33FCED33FDC386
:10120000EE952B4008EEC3952BFE430201D52FD956
:101210008A248B258C268D278E2822858222858301
:1012200023E4F529F52AAA30AB31AC328A828B83CC
:101230008CF012115DFD74012AF530E43BF5318C20
:1012400032EDFA70030217ABBA250280030217A32E
:10125000C204C205C206C207C208C209C20AC20B42
:10126000C201C202C203752B00752C00752DFFABA5
:1012700030AC31AD328B828C838DF012115DFAA3CC
:10128000AB82AC838B308C318D32BA25078A8212C7
:10129000119280928A06BE3000402E8A06EE24C645
:1012A000402774FFB52D13E52C75F00AA4FEEA243F
:1012B000D02EF52C70BFD20580BBE52D75F00AA4A9
:1012C000FEEA24D02EF52D80ACBA2E0A74FFB52D7F
:1012D000A4752D00809F8A06BE6100400E8A06EE2E
:1012E000248540075302DFD2008002C200BA2002E8
:1012F0008075BA2303021376BA2A0302137BBA2B32
:1013000002805FBA2D028055BA4202805FBA430361
:101310000213C0BA44030214FBBA4503021515BAFE
:101320004603021511BA4703021519BA49030214FC
:10133000FBBA4C02803BBA4E0302151DBA4F0302A2
:101340001502BA5003021494BA53030213E4BA55B7
:1013500003021507BA580302150C021547D20402FE
:101360001275D206021275D207021275D209021244
:1013700075D20A021275D20B02127574FFB52D20B8
:1013800030090BE53314F88833862C021275E533E7
:1013900024FEF888338606088607188E2C021275FC
:1013A00030090BE53314F88833862D021275E533C6
:1013B00024FEF888338606088607188E2D021275DB
:1013C00030090AE53314F888338602800FE53324A8
:1013D000FEF888338603088604188B028A8212116D
:1013E0009202154CE53324FDF88833860308860401
:1013F00008860518188B248C258D268B828C838D6E
:10140000F01217B2AB82AC838B2E74FFB52D03851F
:101410002E2D20041DC3E52E952C5016E52CC395CA
:101420002EF52CAB2C152CEB600875822012119236
:1014300080F18524828525838526F012115DFBFAD3
:101440006029AB2D152DC3E464808BF063F080958B
:10145000F050188A82121192AB24AC25AD260BBB3A
:1014600000010C8B248C258D2680C72004030215D7
:101470004CC3E52E952C400302154CE52CC3952E4C
:10148000F52CAB2C152CEB700302154C7582201239
:10149000119280EEE53324FDF88833860308860434
:1014A00008860518188B248C258D26E526FB30E749
:1014B000047A438013EB546060047A50800AEB3066
:1014C000E6047A4980027A588A82C0021211927523
:1014D000823A12119275823012119275827812112D
:1014E00092D002BA4902800BBA500280068525824A
:1014F0001211C58524821211C58051D208752B0A9C
:10150000804A752B088045752B0A8040752B10800A
:101510003BD2018037D2028033D203802FE53324BF
:10152000FDF88833860308860408860518188B247E
:101530008C258D268B828C838DF0E529121179A361
:10154000E52A12117980058A821211922001062063
:10155000020330035AE53324FCF8883386030886F7
:10156000040886050886061818188B248C258D26F5
:101570008E277524D1752507752680852434852509
:101580003585263674012534FEE43535FFAB368EBD
:10159000248F258B268534828535838536F012117C
:1015A0005DFBFA70030212268A8212119280CCE54A
:1015B0002B70030212267BBC30092BE53314F8880C
:1015C00033E6FC3395E0FDFEFF8C248D258E268FBF
:1015D0002720085EAC247D007E007F008C248D25B2
:1015E0008E268F27804C300A1FE53324FCF8883381
:1015F00086040886050886060886071818188C24AD
:101600008D258E268F27802AE53324FEF8883386A1
:101610000408860518ED3395E0FEFF8C248D258E99
:10162000268F2720080CAC24AD257E007F008E2657
:101630008F27300B43E5244525452645276039741F
:1016400008B52B0C758230C003121192D00380288C
:101650007410B52B23758230C003121192D0033061
:10166000000C758278C003121192D003800A758233
:1016700058C003121192D003300825AC24AD25AE1A
:1016800026E527FF30E717C3E49CFCE49DFDE49EBC
:10169000FEE49FFF8C248D258E268F278002C208B2
:1016A000752E00D20C8B00752800C0001211DCD002
:1016B00000200C0DE528C4FCE6FD4CF618880380DC
:1016C00002A628052EB20CE524452545264527709F
:1016D000D68803E52C7003752C0120051A20041709
:1016E000E52E04FCC3952C500E758220C003121108
:1016F00092D003152C80E930080E75822DC003129C
:101700001192D003152C8024E52E602030060E7532
:10171000822BC003121192D003152C800F30070CBE
:10172000758220C003121192D003152C20041EAC28
:101730002C152CC3E52E9C50273005047C308002EC
:101740007C208C82C003121192D00380E2C3E52E6C
:10175000952C5009E52CC3952EF52C8003752C0093
:101760008B00AB2E152EEB6022B20C200C0A08E683
:10177000C4540FFB8B2880078603740F5BF5288504
:101780002882C0001211ACD00080D72004030212BE
:1017900026AB2C152CEB7003021226758220121139
:1017A0009280EE8A82121192021226852982852A5F
:1017B0008322AA82AB83ACF07D007E008A828B8379
:1017C0008CF012115DFFA3AA82AB83EF60070DBD01
:1017D00000EA0E80E78D828E832200000000000068
:00000001FF
