:1000000002000375812B12008FE582600302006FEE
:10001000780079007A007B007C007D00EC4D601C4C
:1000200088828983E493A3A882A9838A828B83F040
:10003000A3AA82AB831CBCFFE31D80E07582007520
:1000400083007C007D00EC4D600AE4F0A31CBCFF43
:10005000F51D80F27582007583007C007D00EC4DFB
:10006000600AE4F0A31CBCFFF51D80F212008E12A2
:10007000012280FE48656C6C6F2C20576F726C6497
:10008000210A003C4E4F20464C4F41543E00227501
:100090008E11438780759852759B00759AF4759BF5
:1000A0001E75820022AA82C28C5389F0438901EA1C
:1000B00024FA5006EA24FBFA80027A018A22752388
:1000C0000075240075250090FFEA74FFF5F0120119
:1000D00047AA82AB83C28D8B047D008C8C7B008A07
:1000E0008AD28C308DFD22AA82AB837C007D00C336
:1000F000EC9AED9B502B7E00BE0400501D7582FAD9
:10010000C002C003C004C005C0061200A5D006D0BE
:1001100005D004D003D0020E80DE0CBC00D10D80CF
:10012000CE229000641200E77474C0E07400C0E056
:100130007480C0E01201CA158115811581B2B79093
:1001400001F41200E780F6AAF0FBE5828522F0A414
:10015000FCADF0E5838522F0A42DFDE435F0FEE54D
:10016000828523F0A42DFDE5F03EFEE433FFEA8511
:1001700022F0A42EFEE5F03FFFE5838523F0A42EB8
:10018000FEE5F03FFFE5828524F0A42EFEE5F03F7A
:10019000FFEB8522F0A42FFFEA8523F0A42FFFE5D3
:1001A000838524F0A42FFFE5828525F0A42F8EF00F
:1001B0008D838C822202080B85821885831985F035
:1001C0001A85091B9001B5020274C008858108E5F3
:1001D0000824FBF51BE50824FBF886180886190897
:1001E000861A9001B5120274D00822AA8274FCC04B
:1001F000E07401C0E0C00AC00B8A82220511E4B598
:100200001102051222AA8274302AFA24C6500A74F6
:10021000072AFA3000034302208A820201EBE582BA
:10022000FAC4540FF582C002120205D002740F5AAC
:10023000F582020205AA0CAB0DAC0EAD0FAE107527
:100240001720EE2EFEED235401FF4206EA2AFAEBB8
:1002500033FBEC33FCED33FDC3EE95134008EEC3E6
:100260009513FE430201D517D98A0C8B0D8C0E8D88
:100270000F8E102285820A85830BE4F511F512AAF0
:1002800018AB19AC1A8A828B838CF0120820FD748B
:10029000012AF518E43BF5198C1AEDFA70030208EF
:1002A00004BA250280030207FCC204C205C206C2CA
:1002B00007C208C209C20AC20BC201C202C2037548
:1002C00013007514007515FFAB18AC19AD1A8B82AD
:1002D0008C838DF0120820FAA3AB82AC838B188C30
:1002E000198D1ABA25078A821201EB80928A06BEFE
:1002F0003000402E8A06EE24C6402774FFB5151341
:10030000E51475F00AA4FEEA24D02EF51470BFD2CD
:100310000580BBE51575F00AA4FEEA24D02EF5157C
:1003200080ACBA2E0A74FFB515A4751500809F8A9B
:1003300006BE6100400E8A06EE248540075302DFA8
:10034000D2008002C200BA20028075BA23030203E1
:10035000CFBA2A030203D4BA2B02805FBA2D0280DF
:1003600055BA4202805FBA4303020419BA44030239
:100370000554BA450302056EBA460302056ABA4738
:1003800003020572BA4903020554BA4C02803BBA13
:100390004E03020576BA4F0302055BBA500302040E
:1003A000EDBA530302043DBA5503020560BA58037F
:1003B0000205650205A0D2040202CED2060202CED8
:1003C000D2070202CED2090202CED20A0202CED255
:1003D0000B0202CE74FFB5152030090BE51B14F893
:1003E000881B86140202CEE51B24FEF8881B8606B5
:1003F000088607188E140202CE30090BE51B14F88C
:10040000881B86150202CEE51B24FEF8881B860693
:10041000088607188E150202CE30090AE51B14F86B
:10042000881B8602800FE51B24FEF8881B860308C4
:100430008604188B028A821201EB0205A5E51B24B3
:10044000FDF8881B860308860408860518188B0C9F
:100450008C0D8D0E8B828C838DF0120855AB82AC87
:10046000838B1674FFB5150385161520041DC3E58F
:100470001695145016E514C39516F514AB141514FF
:10048000EB60087582201201EB80F1850C82850DEE
:1004900083850EF0120820FBFA6029AB151515C3F1
:1004A000E464808BF063F08095F050188A8212012A
:1004B000EBAB0CAC0DAD0E0BBB00010C8B0C8C0D23
:1004C0008D0E80C72004030205A5C3E516951440D0
:1004D000030205A5E514C39516F514AB141514EB2A
:1004E00070030205A57582201201EB80EEE51B2446
:1004F000FDF8881B860308860408860518188B0CEF
:100500008C0D8D0EE50EFB30E7047A438013EB541F
:100510006060047A50800AEB30E6047A4980027AFF
:10052000588A82C0021201EB75823A1201EB758281
:10053000301201EB7582781201EBD002BA490280C9
:100540000BBA50028006850D8212021E850C8212A3
:10055000021E8051D20875130A804A75130880451F
:1005600075130A8040751310803BD2018037D20288
:100570008033D203802FE51B24FDF8881B860308F7
:10058000860408860518188B0C8C0D8D0E8B828CBA
:10059000838DF0E51112083CA3E51212083C80059A
:1005A0008A821201EB20010620020330035AE51B68
:1005B00024FCF8881B86030886040886050886063E
:1005C0001818188B0C8C0D8D0E8E0F750C83750DF5
:1005D00000750E80850C1C850D1D850E1E74012571
:1005E0001CFEE4351DFFAB1E8E0C8F0D8B0E851C83
:1005F00082851D83851EF0120820FBFA700302021B
:100600007F8A821201EB80CCE513700302027F7BAC
:100610002B30092BE51B14F8881BE6FC3395E0FD15
:10062000FEFF8C0C8D0D8E0E8F0F20085EAC0C7DA6
:10063000007E007F008C0C8D0D8E0E8F0F804C3055
:100640000A1FE51B24FCF8881B860408860508861B
:10065000060886071818188C0C8D0D8E0E8F0F80CB
:100660002AE51B24FEF8881B860408860518ED334E
:1006700095E0FEFF8C0C8D0D8E0E8F0F20080CACBC
:100680000CAD0D7E007F008E0E8F0F300B43E50CFE
:10069000450D450E450F60397408B5130C75823051
:1006A000C0031201EBD00380287410B513237582A8
:1006B00030C0031201EBD00330000C758278C00308
:1006C0001201EBD003800A758258C0031201EBD0EF
:1006D00003300825AC0CAD0DAE0EE50FFF30E7176B
:1006E000C3E49CFCE49DFDE49EFEE49FFF8C0C8D26
:1006F0000D8E0E8F0F8002C208751600D20C8B0073
:10070000751000C000120235D000200C0DE510C499
:10071000FCE6FD4CF61888038002A6100516B20C04
:10072000E50C450D450E450F70D68803E5147003A2
:1007300075140120051A200417E51604FCC395144E
:10074000500E758220C0031201EBD003151480E90E
:1007500030080E75822DC0031201EBD003151480F2
:1007600024E516602030060E75822BC0031201EBC3
:10077000D0031514800F30070C758220C0031201BE
:10078000EBD003151420041EAC141514C3E5169CFD
:1007900050273005047C3080027C208C82C00312FC
:1007A00001EBD00380E2C3E51695145009E514C3AC
:1007B0009516F51480037514008B00AB161516EB17
:1007C0006022B20C200C0A08E6C4540FFB8B108088
:1007D000078603740F5BF510851082C000120205B6
:1007E000D00080D720040302027FAB141514EB70F5
:1007F0000302027F7582201201EB80EE8A821201D1
:10080000EB02027F85118285128322AA82BA0A082E
:1008100010990280FB75990D10990280FB8A99222C
:1008200020F71430F6148883A88220F507E6A88301
:1008300075830022E280F7E49322E02220F7103053
:10084000F6118883A88220F507F6A8837583002215
:10085000F280F7F022AA82AB83ACF07D007E008AA2
:10086000828B838CF0120820FFA3AA82AB83EF60F7
:10087000070DBD00EA0E80E78D828E832200000006
:00000001FF
