:0300000002012DCD
:10000300C00078B10000D8FCD00022C000C0017944
:100013002D78A6D8FED9FADAF6D001D00022D2B3D1
:10002300120003C2B322A2E792B7A2E692B6A2E5F8
:1000330092B5A2E492B4120021120003A2E392B794
:10004300A2E292B6A2E192B5A2E092B412002122FA
:10005300D2B2020029C2B2020029C2B37433120021
:10006300587433120058743212005874281200580E
:10007300740C1200587401120058C0027A02120064
:100083000ED00222E4936006120053A380F62244AA
:10009300404480020058C0E0E8C4540F44301200CA
:1000A30053E8540F4430120053D0E0224672657176
:1000B30075656E63792028487A293A20007AB079E9
:1000C300FA78A6D8FED9FADAF62275C80275CB00FB
:1000D30075CA00D29022E4780079007A007B10E59B
:1000E300CC33F5CCE5CD33F5CDE838D4F8E939D4C4
:1000F300F9EA3AD4FADBE822EA540F443012005307
:10010300E9C4540F4430120053E9540F4430120031
:1001130053E8C4540F4430120053E8540F443012D0
:100123000053221200CD12005D2275817F12012639
:10013300C0E0740114120094D0E0C083C082C0E018
:100143009000AF120087D0E0D082D083C2CAE4F51A
:10015300CCF5CDC2CFD2CA1200C0C2CAC0E074016E
:0E01630014120092D0E01200D91200FB80DED0
:00000001FF
