:030000000203FCFC
:03002B000203F0DD
:10002E00C00078B10000D8FCD00022C000C0017919
:10003E002D78A6D8FED9FADAF6D001D00022D2B3A6
:10004E0012002EC2B322A2E792B7A2E692B6A2E5A2
:10005E0092B5A2E492B412004C12002EA2E392B713
:10006E00A2E292B6A2E192B5A2E092B412004C22A4
:10007E00D2B2020054C2B2020054C2B374331200A0
:10008E008374331200837432120083742812008337
:10009E00740C1200837401120083C0027A021200E3
:1000AE0039D00222E493600612007EA380F6224429
:1000BE00404480020083C0E0E8C4540F4430120074
:0C00CE007EE8540F443012007ED0E02287
:1000DA00C0E0C0D0C000C001C002E4F538F539F56F
:1000EA003AF53BF53C7A20E533A2E779047830E625
:1000FA0033F608D9FA79057838E636D4F608D9F904
:10010A00DAE5D002D001D000D0D0D0E022C0E0C0E1
:10011A00D0C000C001C002E4F538F539F53AF53B24
:10012A00F53C7A20E533A2E779047830E633F6081D
:10013A00D9FA79057838C0D0E6243320E70224D0EA
:10014A0020E30224FDD0D033F608D9EADAD6D00269
:10015A00D001D000D0D0D0E022C0E0C0D0C000C0D2
:10016A0001C0027A207905C3783CE613C0D030E793
:10017A000224D030E30224FDF618D0D0D9EC790459
:10018A007833E613F618D9FADADBD002D001D000B8
:10019A00D0D0D0E022C0E0C0D0E5302534F530E53B
:1001AA00313535F531E5323536F532E5333537F562
:1001BA0033D0D0D0E022C0E0C0D0C3E5309534F5CA
:1001CA0030E5319535F531E5329536F532E5339539
:1001DA0037F533D0D0D0E022C0E0C0D0C3E53095A7
:1001EA0034E5319535E5329536E53395379200D0C9
:1001FA00D0D0E022C0E0C0D0C3E5349530E53595D3
:10020A0031E5369532E53795339200D0D0D0E022E9
:10021A00C0E0C0D0C200C3E53495307014E535950E
:10022A0031700EE53695327008E53795337002D293
:10023A0000D0D0D0E02212021A2000030201FE22CE
:10024A0012021A2000030201E222C0E0C0F0C0D06C
:10025A00C000C001C002C003E5308534F0A4F8A98B
:10026A00F0E5318534F0A429F9E435F0FAE5308572
:10027A0035F0A429F9E5F03AFAE433FBE53285349E
:10028A00F0A42AFAE5F03BFBE5318535F0A42AFA19
:10029A00E5F03BFBE5308536F0A42AFAE5F03BFBB6
:1002AA00E5338534F0A42BFBE5328535F0A42BFB2E
:1002BA00E5318536F0A42BFBE5308537F0A42BFB1E
:1002CA008B338A3289318830D003D002D001D000F2
:1002DA00D0D0D0F0D0E022C0E0C0D0C000C001C071
:1002EA0002C003C0047C20E4F8F9FAFBC3E530330A
:1002FA00F530E53133F531E53233F532E53333F5AF
:10030A0033E833F8E933F9EA33FAEB33FBC3E89518
:10031A0034E99535EA9536EB95374013E89534F884
:10032A00E99535F9EA9536FAEB9537FB433001DC66
:10033A00BBD004D003D002D001D000D0D0D0E0226C
:10034A0085303485313585323685333722E530C5F7
:10035A0034F530E531C535F531E532C536F532E5E6
:06036A0033C537F5332214
:1003700043617061636974616E6365202875462905
:100380003A200043617061636974616E636520287F
:100390006E46293A200043617061636974616E633F
:1003A0006520287046293A20007AB079FA78A6D8D4
:1003B000FED9FADAF622C000A83C1200C4D000C070
:1003C00000A83B1200C4D000C000A83A1200C4D05C
:1003D00000C000A8391200C4D000C000A838120024
:1003E000C4D0002275C80275CB0075CA00D2902215
:1003F000C2CF0530321203E41200882275817F12C9
:1004000003F5C0E07401141200BFD0E0C083C082C5
:10041000C0E09003701200B2D0E0D082D083C2CA94
:10042000E4F5CCF5CDF530C2CFD2CA1203A9C2CAC9
:1004300085CC3085CD31753200753300E5CC45CDA6
:100440007534B875350B75360075370012025412C5
:10045000034A75300075319075324E75335A120269
:10046000E120C52DC0E07401141200BFD0E0C083AC
:10047000C082C0E09003831200B2D0E0D082D0836B
:100480007534E875350375360075370012025480EF
:100490004C20A52DC0E07401141200BFD0E0C08331
:1004A000C082C0E09003961200B2D0E0D082D08328
:1004B00075344075354275360F7537001202548019
:1004C0001CC0E07401141200BFD0E0C083C082C021
:1004D000E09003701200B2D0E0D082D0837534E88F
:1004E0007535037536007537001202E1C0E07401FE
:0F04F000141200BDD0E01200DA1203B602041E8F
:00000001FF
