:100000000C9434000C9451000C9451000C94510049
:100010000C9451000C9451000C9451000C9451001C
:100020000C9451000C9451000C9451000C9451000C
:100030000C9451000C9451000C9451000C945100FC
:100040000C9451000C9451000C9451000C945100EC
:100050000C9451000C9451000C9451000C945100DC
:100060000C9451000C94510011241FBECFEFD8E026
:10007000DEBFCDBF11E0A0E0B1E0ECE7F7E002C0E9
:1000800005900D92A834B107D9F721E0A8E4B1E0BA
:1000900001C01D92AE34B207E1F70E9416010C9424
:1000A000BC030C94000093E890937A0080937C004A
:1000B00080917C00806C80937C0080917A008064C9
:1000C00080937A0080917A0086FDFCCF80917A003F
:1000D000806480937A0080917A0086FDFCCF8091C5
:1000E0007A008F7780937A008091780090917900E0
:1000F0000895EF92FF920F931F93CF93DF93CDB7A5
:10010000DEB764970FB6F894DEBF0FBECDBF9C017B
:10011000F62EE72E8A0181E1EEE0F1E0DE01119694
:1001200001900D928A95E1F71C8AE1E0F0E0121649
:100130001306D4F010161106BCF0CF01019622E18F
:1001400030E02C0F3D1F820F931F0E940A0164961E
:100150000FB6F894DEBF0FBECDBFDF91CF911F91D8
:100160000F91FF90EF900895C9016F2D7E2D0E9491
:10017000AD01A1E0B0E0AC0FBD1FA80FB91F8C917D
:10018000A2E1B0E0AC0FBD1FAE0FBF1F8C939B016F
:100190000115110511F0015011093197C8CF80E008
:1001A00091E090934B0180934A01519A509810929C
:1001B000C50083E38093C400E1ECF0E080818860B7
:1001C000808380818061808386E08093C20008956F
:1001D0009091C00095FFFCCF8093C6000895CF9307
:1001E000C82F8A3019F48DE00E94E8008C2F0E94FD
:1001F000E80090E080E0CF9108958091C00087FFF3
:10020000FCCF8091C60008958091C000881F882788
:10021000881F0895CF93DF93EC018991811103C06A
:10022000DF91CF9108950E94E800F7CF00D000D071
:1002300000D0CDB7DEB70E94CF00209A289A8FE178
:1002400091E00E940A0188248A9483E0982EA12CD0
:10025000B12C98EEC92E93E0D92EE12CF12C662416
:10026000639480E00E9453008E839D839C01A8E8E4
:10027000B3E10E940202A50194010E94E3012983D7
:100280003A834B835C83CA01B9010E94C10220E01A
:1002900030E040E05FE369837A838B839C836981EC
:1002A0007A818B819C810E94250220E030E048EC1D
:1002B00052E469837A838B839C8369817A818B8101
:1002C0009C810E944F03562E772E8C018CE291E088
:1002D0000E940A0143E050E060E170E08E819D8160
:1002E0000E94790086E391E00E940A0159827A8295
:1002F0000B831C8369817A818B819C810E9492028D
:10030000A70196010E94C101890169837A838B83C9
:100310009C8341E050E06AE070E0C8010E947900EF
:1003200089E391E00E940A0143E050E06AE070E056
:1003300089819A810E9479008BE391E00E940A01F1
:1003400085B1862585B92FEF89E698E12150804057
:100350009040E1F700C0000084CF97FB072E16F411
:10036000009407D077FD09D00E94110207FC05D048
:100370003EF4909581959F4F0895709561957F4FBC
:100380000895A1E21A2EAA1BBB1BFD010DC0AA1FD6
:10039000BB1FEE1FFF1FA217B307E407F50720F0EE
:1003A000A21BB30BE40BF50B661F771F881F991F69
:1003B0001A9469F760957095809590959B01AC01B2
:1003C000BD01CF010895052E97FB1EF400940E94F5
:1003D000FA0157FD07D00E94C10107FC03D04EF47B
:1003E0000C94FA0150954095309521953F4F4F4F11
:1003F0005F4F089590958095709561957F4F8F4FD1
:100400009F4F0895A29FB001B39FC001A39F700D9D
:10041000811D1124911DB29F700D811D1124911D0C
:100420000895AA1BBB1B51E107C0AA1FBB1FA6173B
:10043000B70710F0A61BB70B881F991F5A95A9F78D
:1004400080959095BC01CD0108955058BB27AA27EF
:100450000E943D020C9415030E94070338F00E948D
:100460000E0320F039F49F3F19F426F40C94040392
:100470000EF4E095E7FB0C94FE02E92F0E942603A0
:1004800058F3BA17620773078407950720F079F4C9
:10049000A6F50C9448030EF4E0950B2EBA2FA02D70
:1004A0000B01B90190010C01CA01A0011124FF2721
:1004B000591B99F0593F50F4503E68F11A16F0401C
:1004C000A22F232F342F4427585FF3CF469537951B
:1004D0002795A795F0405395C9F77EF41F16BA0BE0
:1004E000620B730B840BBAF09150A1F0FF0FBB1F8E
:1004F000661F771F881FC2F70EC0BA0F621F731FD7
:10050000841F48F4879577956795B795F7959E3F33
:1005100008F0B0CF9395880F08F09927EE0F9795C4
:10052000879508950E942E0388F09F5798F0B92F61
:100530009927B751B0F0E1F0660F771F881F991F18
:100540001AF0BA95C9F714C0B13091F00E9448036F
:10055000B1E008950C944803672F782F8827B85F7F
:1005600039F0B93FCCF3869577956795B395D9F770
:100570003EF490958095709561957F4F8F4F9F4F7A
:100580000895E89409C097FB3EF490958095709586
:1005900061957F4F8F4F9F4F9923A9F0F92F96E9CF
:1005A000BB279395F695879577956795B795F11144
:1005B000F8CFFAF4BB0F11F460FF1BC06F5F7F4FE1
:1005C0008F4F9F4F16C0882311F096E911C07723F3
:1005D00021F09EE8872F762F05C0662371F096E8FC
:1005E000862F70E060E02AF09A95660F771F881FCB
:1005F000DAF7880F9695879597F9089597F99F6789
:1006000080E870E060E008959FEF80EC089500249A
:100610000A941616170618060906089500240A9467
:1006200012161306140605060895092E0394000CED
:1006300011F4882352F0BB0F40F4BF2B11F460FF7C
:1006400004C06F5F7F4F8F4F9F4F089557FD9058A5
:10065000440F551F59F05F3F71F04795880F97FB86
:10066000991F61F09F3F79F0879508951216130640
:100670001406551FF2CF4695F1DF08C0161617066F
:100680001806991FF1CF86957105610508940895A4
:10069000E894BB2766277727CB0197F908950E9436
:1006A00062030C9415030E94070338F00E940E03A6
:1006B00020F0952311F00C94FE020C9404031124F5
:1006C0000C9449030E94260370F3959FC1F3950F84
:1006D00050E0551F629FF001729FBB27F00DB11DC6
:1006E000639FAA27F00DB11DAA1F649F6627B00D56
:1006F000A11D661F829F2227B00DA11D621F739F3F
:10070000B00DA11D621F839FA00D611D221F749F4C
:100710003327A00D611D231F849F600D211D822F93
:10072000762F6A2F11249F5750409AF0F1F08823BA
:100730004AF0EE0FFF1FBB1F661F771F881F9150E7
:100740005040A9F79E3F510580F00C94FE020C9496
:1007500049035F3FE4F3983ED4F386957795679518
:10076000B795F795E7959F5FC1F7FE2B880F911D11
:0C0770009695879597F90895F894FFCFAF
:10077C000000000200000000EF000000000030311B
:10078C003233343536373839414243444546000D0F
:10079C000A41444320746573740D0A004144435B61
:1007AC00305D3D3078002C20002E0056202020207B
:0807BC002020202020200D0068
:00000001FF
