:100000000C9434000C9451000C9451000C94510049
:100010000C9451000C9451000C9451000C9451001C
:100020000C9451000C9451000C9451000C9451000C
:100030000C9451000C9451000C9451000C945100FC
:100040000C9451000C9451000C9451000C945100EC
:100050000C9451000C9451000C9451000C945100DC
:100060000C9451000C94510011241FBECFEFD8E026
:10007000DEBFCDBF11E0A0E0B1E0EEEAF8E002C0E3
:1000800005900D92A433B107D9F721E0A4E3B1E0C4
:1000900001C01D92AA33B207E1F70E94C0000C9480
:1000A00055040C94000093E890937A0080937C00B0
:1000B00080917C00806C80937C0080917A008064C9
:1000C00080937A0080917A0086FDFCCF80917A003F
:1000D000806480937A0080917A0086FDFCCF8091C5
:1000E0007A008F7780937A008091780090917900E0
:1000F000089580E091E09093370180933601519A02
:1001000050981092C50083E38093C400E1ECF0E0C6
:1001100080818860808380818061808386E0809395
:10012000C20008959091C00095FFFCCF8093C60057
:100130000895CF93C82F8A3019F48DE00E94920061
:100140008C2F0E94920090E080E0CF9108958091E2
:10015000C00087FFFCCF8091C60008958091C00049
:10016000881F8827881F0895CF93DF93EC0189911A
:10017000811103C0DF91CF9108950E949200F7CFC3
:1001800000D000D000D0CDB7DEB70E947900209A11
:10019000289A8EE091E00E947B0144244A9483E0F7
:1001A000582E612C712C98EE892E93E0992EA12C5B
:1001B000B12C08E111E0FF24F39480E00E94530089
:1001C0008D839E839C01A8E8B3E10E945801A3019E
:1001D00092010E94390129833A834B835C83CA01CF
:1001E000B901A50194010E9417019F938F937F93FA
:1001F0006F935F934F933F932F932E812F938D8116
:100200008F931F930F930E94670185B18F2585B946
:100210009FEF29E688E1915020408040E1F700C03F
:1002200000000FB6F894DEBF0FBECDBFC6CFA1E26F
:100230001A2EAA1BBB1BFD010DC0AA1FBB1FEE1F60
:10024000FF1FA217B307E407F50720F0A21BB30BAB
:10025000E40BF50B661F771F881F991F1A9469F727
:1002600060957095809590959B01AC01BD01CF0183
:100270000895052E97FB1EF400940E94500157FD2F
:1002800007D00E94170107FC03D04EF40C945001D4
:1002900050954095309521953F4F4F4F5F4F0895B2
:1002A00090958095709561957F4F8F4F9F4F0895E2
:1002B000A29FB001B39FC001A39F700D811D1124A7
:1002C000911DB29F700D811D1124911D0895B0E004
:1002D000A0E0EDE6F1E00C942E04FE01359661916C
:1002E0007191AF0180913601909137010E94A70171
:1002F000E2E00C944A040F931F93CF93DF93E091B5
:100300003601F0913701238100E010E021FD0EC09D
:100310000FEF1FEFC801DF91CF911F910F9108954B
:100320000995892B11F00FEF1FEFCE01EC01899198
:100330006091360170913701DB011896ED91FC91C7
:100340008111EECF8AE00995892B21F3E1CFAFE04F
:10035000B0E0EDEAF1E00C941E047C013B018A015F
:10036000DC0117961C921E92169713968C9181FFB2
:10037000BEC19AE0292EFE0131964F01D701139696
:100380009C91F30193FD859193FF81913F01882317
:1003900009F444C1853239F493FD859193FF81912D
:1003A0003F01853229F4B70190E00E949003E6CF27
:1003B000B12C412C512CBFE1B51538F08B3209F12D
:1003C00088F4803201F1833221F157FC3AC020EDEC
:1003D000280F2A3040F556FE1FC0B29C200D112474
:1003E000B22E06C08D3291F0803379F7689450F8C0
:1003F000F30193FD859193FF81913F018111DBCF43
:1004000020C0689451F8689452F8F2CF689453F879
:10041000EFCF689454F8ECCF429C200D1124422E6B
:10042000689455F8E5CF8E3229F456FCF7C06894ED
:1004300056F8DECF8C3619F4689457F8D9CF883641
:10044000B9F2982F9F7D95549330C0F0833681F197
:100450008337A1F1833509F05BC0D801CD90DD90E1
:100460008D016B2D70E056FC02C06FEF7FEFC6016F
:100470000E947A035C01689457F80AC00C5F1F4F12
:10048000EFE3E983AA24A394B12C6401E89457F81C
:1004900053FE29C0342CA114B10451F5332009F4C2
:1004A0006DCFB70180E290E00E9490033A94F6CFBE
:1004B000D8018C9189830E5F1F4FE4CFF801C19062
:1004C000D1908F016B2D70E056FC02C06FEF7FEF73
:1004D000C6010E9485035C01D9CFB70180E290E09C
:1004E0000E9490034A944A141B0409F0B0F7D2CF3B
:1004F000F60157FC859157FE81916F01B70190E09D
:100500000E94900331103A94B1E0AB1AB108C3CF06
:10051000843619F0893609F071C0F80157FE67C0BA
:1005200061917191819191918F01E52DEF76DE2E90
:1005300097FF09C090958095709561957F4F8F4F7B
:100540009F4F6894D7F82AE030E0A4010E94C003CE
:10055000C82EC818AC2C5D2CD6FE0CC0E89450F800
:10056000CB1440F4D4FE05C0D2FC03C05D2D5E7EEA
:10057000552EAB2C54FE93C0FE01EC0DF11D808175
:10058000803309F085C0652D697E562E752D7870F3
:10059000372E53FC93C050FE8DC0BC2CA41410F415
:1005A000B40CBA1854FE90C0B70180E390E00E94EA
:1005B000900352FE07C088E751FC88E590E0B70140
:1005C0000E949003CB1408F48BC0CA94D12C8FEFF7
:1005D000C81AD80AC80CD91CD6018E916D01B70172
:1005E00090E00E9490038C149D04B1F757CF619165
:1005F0007191072E000C880B990B96CFD52CE8949F
:10060000D4F82AE0853729F1F52DF97FDF2E8037E0
:10061000A1F058F48835A1F08F36D1F0F70186812A
:1006200097812F96E2E10C943A048837B9F7D4FE0B
:1006300002C06894D2F820E10CC06894D4F8F7CFD7
:1006400054FE03C02F2F2660D22E20E132E002C0DC
:1006500028E030E0F801D7FE15C041915191619139
:1006600071914C875D876E877F878F01A4016C85B0
:100670007D858E859F850E94C003C82EC818E8948A
:10068000D7F868CF81919191AC0170E060E0E9CF3B
:1006900052FC02C0A3947ACFA394A39477CF852D64
:1006A000867809F473CFF6CFB70180E290E00E941C
:1006B0009003A394A414C0F3312C74CF342C3A18B3
:1006C000A41408F46FCFF8CF852D867809F47ACF7B
:1006D0008BE251FE80E257FC8DE2B70190E070CFD3
:1006E000B70180E390E00E949003BA946BCF8FEF44
:1006F0009FEF97CFFC010590615070400110D8F733
:10070000809590958E0F9F1F0895FC016150704059
:1007100001900110D8F7809590958E0F9F1F089536
:100720000F931F93CF93DF93182F092FEB018B812A
:1007300081FD09C01FEF0FEF812F902FDF91CF9127
:100740001F910F91089582FF14C02E813F818C81EB
:100750009D81281739073CF4E881F981CF01019682
:100760009983888310838E819F8101969F838E83D6
:10077000E3CFE885F985812F0995892BA1F3DACF9D
:10078000FA01AA27283051F1203181F1E8946F93C2
:100790006E7F6E5F7F4F8F4F9F4FAF4FB1E03ED068
:1007A000B4E03CD0670F781F891F9A1FA11D680F06
:1007B000791F8A1F911DA11D6A0F711D811D911D39
:1007C000A11D20D009F468943F912AE0269F1124AE
:1007D0003019305D3193DEF6CF010895462F477012
:1007E000405D4193B3E00FD0C9F7F6CF462F4F706D
:1007F000405D4A3318F0495D31FD4052419302D0CB
:10080000A9F7EACFB4E0A695979587957795679570
:10081000BA95C9F700976105710508959B01AC0170
:100820000A2E06945795479537952795BA95C9F797
:10083000620F731F841F951FA01D08952F923F9272
:100840004F925F926F927F928F929F92AF92BF92E0
:10085000CF92DF92EF92FF920F931F93CF93DF938C
:10086000CDB7DEB7CA1BDB0B0FB6F894DEBF0FBEE9
:10087000CDBF09942A88398848885F846E847D8436
:100880008C849B84AA84B984C884DF80EE80FD8038
:100890000C811B81AA81B981CE0FD11D0FB6F894AE
:0E08A000DEBF0FBECDBFED010895F894FFCF6F
:1008AE0000000002000000009900000000000A4154
:1008BE0044432074657374004144435B305D3D30A6
:1008CE0078253033782C20256C642E2530336C64DB
:0408DE00560D0000B3
:00000001FF
