:03000000020138C2
:1000030022C00078B10000D8FCD00022C000C0019B
:10001300792D78A6D8FED9FADAF6D001D00022D20B
:10002300B3120003C2B322A2E792B7A2E692B6A22A
:10003300E592B5A2E492B4120022120003A2E39265
:10004300B7A2E292B6A2E192B5A2E092B412002264
:1000530022D2B202002AC2B202002AC2B3743312FD
:100063000059743312005974321200597428120063
:1000730059740C1200597401120059C0027A021209
:10008300000FD00222E4936006120054A380F622EC
:1000930044404480020059C0E0E8C4540F44301285
:1000A3000054E8540F4430120054D0E022467265E5
:1000B3007175656E63792028487A293A20007A643D
:1000C3007963785DD8FED9FADAF62275C80275CB62
:1000D3000075CA00D2902275C80075CB0075CA009E
:1000E30022E4780079007A007B10E5CC33F5CCE587
:1000F300CD33F5CDE838D4F8E939D4F9EA3AD4FA6E
:10010300DBE822EA540F4430120054E9C4540F448C
:1001130030120054E9540F4430120054E8C4540F11
:100123004430120054E8540F443012005422120099
:10013300DA12005E2275817F120131C0E07401146E
:10014300120095D0E0C083C082C0E09000B01200DE
:1001530088D0E0D082D083C2CAE4F5CCF5CDC2CF3B
:10016300D2CA1200C1C2CAC0E0740114120093D0F3
:09017300E01200E412010680DE36
:00000001FF
