:1000000002000375814F1202FEE582600302006F59
:10001000780079007A007B007C007D00EC4D601C4C
:1000200088828983E493A3A882A9838A828B83F040
:10003000A3AA82AB831CBCFFE31D80E07582007520
:1000400083007C007D00EC4D600AE4F0A31CBCFF43
:10005000F51D80F27582007583007C007D00EC4DFB
:10006000600AE4F0A31CBCFFF51D80F21202F3123B
:10007000049180FE0A307825303278206661696C00
:1000800065642061743A000A20202020202020206E
:10009000202020202020200020253033780000FF61
:1000A00055AA0FF05AA50102040810204080FEFD59
:1000B000FBF7EFDFBF7F0A0A415438394C50353126
:1000C0005278322053504920454550524F4D2074AC
:1000D0006573742070726F6772616D2E0A0A5365C2
:1000E0006C656374206F7074696F6E3A0A2020200B
:1000F0003129205061747465726E20746573740ABE
:1001000020202032292052616E646F6D2074657347
:10011000740A2020203329205772697465204D65A8
:100120006D6F7279206C6F636174696F6E0A202045
:100130002034292052656164204D656D6F727920ED
:100140006C6F636174696F6E0A2020203529204D21
:10015000656D6F7279204C6F636174696F6E207486
:100160006573740A202020362920446973706C61FD
:1001700079204D656D6F72790A202020372920463D
:10018000696C6C204D656D6F72790A2020203829CA
:10019000204572617365204D656D6F72790A4F70ED
:1001A00074696F6E3A20000A5061747465726E2033
:1001B00074657374696E6720616C6C206D656D6F1A
:1001C0007279206C6F636174696F6E732E0A000A16
:1001D00054686572652077657265202564204552F4
:1001E000524F522873292E0A000A4E6F20657272F0
:1001F0006F72732E20204D656D6F727920776F724C
:100200006B732066696E65210A000A52616E646F25
:100210006D2074657374696E6720616C6C206D6508
:100220006D6F7279206C6F636174696F6E732E0AE3
:10023000000A253033783A20002025303278000A31
:100240004552524F52206174206C6F636174696F24
:100250006E20253033782E202057726F746520254C
:1002600030327820627574207265616420253032E6
:10027000780A000A5465737420706173730A000A67
:10028000416464726573733A20002578000A5661F0
:100290006C75653A20000A5B253033785D3A20257D
:1002A0003032780A000A4C6F636174696F6E207493
:1002B0006F20746573743A20000A54686572652073
:1002C00077657265202564206572726F72287329C4
:1002D0002E0A000A4D656D6F727920636F6E74612E
:1002E000696E733A0A000A003C4E4F20464C4F415B
:1002F000543E00751701E4F518F519F51A22758EAC
:100300001175E60075E70075D60075D70075CE004B
:1003100075CF0075C60075C7004387807598527504
:100320009B00759AF4759B1E75AE0075820022AA1B
:1003300082C28C5389F0438901EA24FA5006EA24E8
:10034000FBFA80027A018A1C751D00751E00751F5C
:100350000090FFEA74FFF5F0120AEDAA82AB83C2A7
:100360008D8B047D008C8C7B008A8AD28C308DFD35
:1003700022AA82AB837C007D00C3EC9AED9B502BBC
:100380007E00BE0400501D7582FAC002C003C00486
:10039000C005C00612032FD006D005D004D003D06C
:1003A000020E80DE0CBC00D10D80CE22AA82C002DB
:1003B000120A6FD0027B007C007D007E0074FE2E4E
:1003C0005001228D828E83C002C003C004C005C0CC
:1003D000061209DAAF82D006D005D004D003D002CD
:1003E000EFB50203020489EB4C70308A07F8C002B3
:1003F000C003C004C005C006C007C0007474C0E0DC
:100400007400C0E07480C0E0120BBBE58124FBF5F2
:1004100081D006D005D004D003D002050CE4B50C81
:1004200002050DEB540F6002802DEB4C6029C002D9
:10043000C003C004C005C0067487C0E07400C0E0FB
:100440007480C0E0120BBB158115811581D006D0D8
:1004500005D004D003D0020BBB00010CC002C003C6
:10046000C004C005C006C005C0067498C0E0740092
:10047000C0E07480C0E0120BBBE58124FBF581D0A5
:1004800006D005D004D003D0020DBD00010E02033A
:10049000BD7510007511009001F4120371120A96D7
:1004A00074B6C0E07400C0E07480C0E0120BBB15ED
:1004B000811581158120980A050EE4B50EF7050F08
:1004C00080F3120BDCAA82C3EA648094B140CE743C
:1004D000B88AF063F08095F040C3EA24CFFA25E0B3
:1004E0002A9004E5730204FD02056E02065E02070F
:1004F000120207780208460208D502091A1209AE4C
:10050000E4F50CF50D74A7C0E07401C0E07480C080
:10051000E0120BBB15811581158175100074E8255B
:1005200010400FE51090009E93F5821203AC051069
:1005300080EBE50C450D601BC00CC00D74CFC0E016
:100540007401C0E07480C0E0120BBBE58124FBF5B0
:1005500081801574E9C0E07401C0E07480C0E012CD
:100560000BBB1581158115811209C402049D120966
:10057000AE740AC0E07402C0E07480C0E0120BBB2D
:10058000158115811581850E82850F83120B97E4E5
:10059000F512F51374FE25135003020611120B5BBE
:1005A000E5828583F0FA8A1085100B851282851307
:1005B00083120A408512828513831209DA8582111B
:1005C000E512540F60028019C012C0137431C0E0EC
:1005D0007402C0E07480C0E0120BBBE58124FBF51F
:1005E00081AA117B00C002C0037439C0E07402C04C
:1005F000E07480C0E0120BBBE58124FBF581E510BF
:10060000B5110E74012512F512E43513F513020528
:1006100094E510B51102802BAA117B00AC107D006F
:10062000C002C003C004C005C012C013743FC0E0C4
:100630007402C0E07480C0E0120BBBE58124F7F5C2
:100640008180157473C0E07402C0E07480C0E01251
:100650000BBB1581158115811209C402049D747F9D
:10066000C0E07402C0E07480C0E0120BBB158115BD
:100670008115817412C0E07400C0E07440C0E07461
:100680008AC0E07402C0E07480C0E0120ACCE58148
:1006900024FAF58190000A120371748DC0E074028F
:1006A000C0E07480C0E0120BBB1581158115817408
:1006B00014C0E07400C0E07440C0E0748AC0E0740C
:1006C00002C0E07480C0E0120ACCE58124FAF58112
:1006D0001209AE85140B851282851383120A408598
:1006E00012828513831209DA8582111209C4AA11B4
:1006F0007B00C002C003C012C0137496C0E0740235
:10070000C0E07480C0E0120BBBE58124F9F58102E2
:10071000049D747FC0E07402C0E07480C0E0120BDE
:10072000BB1581158115817412C0E07400C0E0749E
:1007300040C0E0748AC0E07402C0E07480C0E0127F
:100740000ACCE58124FAF58185128285138312098A
:10075000DA858211AA117B00C002C003C012C01347
:100760007496C0E07402C0E07480C0E0120BBBE578
:100770008124F9F58102049D1209AE74A5C0E074CC
:1007800002C0E07480C0E0120BBB15811581158199
:100790007412C0E07400C0E07440C0E0748AC0E02D
:1007A0007402C0E07480C0E0120ACCE58124FAF53E
:1007B00081E4F510F50CF50D85100B85128285137B
:1007C00083120A408512828513831209DA85821109
:1007D000E510540F6002801DAA107B00C002C00308
:1007E0007431C0E07402C0E07480C0E0120BBBE55D
:1007F0008124FBF581AA117B00C002C0037439C0BB
:10080000E07402C0E07480C0E0120BBBE58124FB01
:10081000F581E510B511028008050CE4B50C020560
:100820000D0510E5107091C00CC00D74B9C0E074D6
:1008300002C0E07480C0E0120BBBE58124FBF581AF
:100840001209C402049D74D3C0E07402C0E0748035
:10085000C0E0120BBB158115811581E4F512F5136B
:1008600074FE251340578512828513831209DA8599
:100870008211E512540F60028019C012C013743146
:10088000C0E07402C0E07480C0E0120BBBE58124BC
:10089000FBF581AA117B00C002C0037439C0E0746B
:1008A00002C0E07480C0E0120BBBE58124FBF5813F
:1008B00074012512F512E43513F51380A374E6C014
:1008C000E07402C0E07480C0E0120BBB158115819A
:1008D000158102049D1209AE748DC0E07402C0E05F
:1008E0007480C0E0120BBB1581158115817414C092
:1008F000E07400C0E07440C0E0748AC0E07402C0DC
:10090000E07480C0E0120ACCE58124FAF5818514F8
:1009100082120A6F1209C402049D1209AE120A2A39
:100920001209C402049D00000000000022AA828A6D
:10093000037C001BBBFF011C8BF005F07B017C00DE
:100940008006EB2BFBEC33FCD5F0F7EB5509FDEC07
:10095000550A4D24FF92A1E50AC50925E0C50933D2
:10096000F50AD2A3C002C003C004120926D004D0E5
:1009700003D00230A2080509E4B50902050AC2A3A2
:10098000DAC9C2A1850982850A8322120926D2A06A
:100990001209267A0020A2137BFAC002C0031209B2
:1009A00026D003D002DBF30ABAC8EAC2A022D2A042
:1009B000120926750980750A0975820C12092DC263
:1009C000A002098BD2A0120926750900750A0875C4
:1009D000820C12092DC2A002098BAA82AB83D2A07D
:1009E000C002C003120926D003D0028A09740C4B3E
:1009F000F50A75820C12092D7509FFE4F50A758256
:100A00000812092DC2A022AA82AB83D2A0C002C0C4
:100A100003120926D003D0028A09740E4BF50A7519
:100A2000820C12092DC2A002098BD2A012092675D0
:100A30000900750A0975820C12092DC2A002098BE2
:100A4000AA82AB83D2A0C002C003120926D003D071
:100A5000028A09740A4BF50A75820C12092D850B5E
:100A600009750A0075820812092DC2A002098BAA15
:100A700082D2A0C002120926750980750A08758203
:100A80000C12092DD0028A09750A00758208120914
:100A90002DC2A002098BC2A0C2A3C2A1D2A222125F
:100AA0000BDCAA82BA0810758220C0021211A77549
:100AB00082081211A7D0028A82228582338583346C
:100AC00085F035851636900A9F020DFFC008858196
:100AD00008E50824FBF536E50824FBF8863308868C
:100AE00034088635900A9F120DFFD00822AAF0FB29
:100AF000E582851CF0A4FCADF0E583851CF0A42DF7
:100B0000FDE435F0FEE582851DF0A42DFDE5F03E07
:100B1000FEE433FFEA851CF0A42EFEE5F03FFFE57E
:100B200083851DF0A42EFEE5F03FFFE582851EF0D3
:100B3000A42EFEE5F03FFFEB851CF0A42FFFEA8515
:100B40001DF0A42FFFE583851EF0A42FFFE582850D
:100B50001FF0A42F8EF08D838C822285171C8518A0
:100B60001D85191E851A1F904E6D75F0C6744112B1
:100B70000AEDAA82AB83ACF0FD74392AF517743004
:100B80003BF518E43CF519E43DF51AAA19AB1A8AAD
:100B900082747F5BF58322AA82AB838A178B1875D8
:100BA0001900751A00220211A785823185833285CA
:100BB000F033851B34900BA6021245C008858108CE
:100BC000E50824FBF534E50824FBF8863108863275
:100BD000088633900BA6121245D008221098028086
:100BE000FBAA998A82C0021211A7D0028A822285AA
:100BF00023828524831217F8858232E532600A0544
:100C00002CE4B52C06052D8002D203853282227A8F
:100C1000007B003003057840760022C002C003123A
:100C20000BEFAC82D003D002BC0002802DBC0802C6
:100C30008014BC09028023BC0A02801EBC0D028005
:100C400019BC20218014EA4B60D11ABAFF011B1590
:100C50002C74FFB52C02152D80C1EA4B60BDEA242F
:100C600040F8760022EC7009EA2440F87600D203BE
:100C700022ECB53107EA2440F8760022C3EA940F4B
:100C8000EB940050968A058B060ABA00010BED24FE
:100C900040F8A604020C1BAA827B7FC3EA648094FE
:100CA000B0401174B98AF063F08095F04006EA24F0
:100CB000D0FB8030C3EA648094C1401174C68AF0CE
:100CC00063F08095F0400674C92AFB8017C3EA647C
:100CD0008094E1400F74E68AF063F08095F0400460
:100CE00074A92AFBC3EB952E50038B822275827F59
:100CF00022AA82752800752900752A00752B008AA2
:100D000000E6FA60148A82C000120C97AB82D00011
:100D1000C3EB952E40030880E886038B82C0001247
:100D20000C97AA82D000C3E52E9A4050852E1C75E0
:100D30001D00751E00751F00852882852983852A60
:100D4000F0E52BC002C000120AEDAB82AC83ADF01F
:100D5000FED000D0028B288C298D2A8E2BE4FBFC40
:100D6000FDEA2528FAEB3529FBEC352AFCED352B7D
:100D7000FD8A288B298C2A8D2B08809D85288285C9
:100D80002983852AF0E52B22AA827528007529007F
:100D9000752A00752B008A00E6FB60228B82C00357
:100DA000C000120C97AC82D000D003C3EC952E404B
:100DB0000DBB2D028008BB2B0280030880DA88025D
:100DC0008603BB2D03D38001C39206BB2D02800393
:100DD000BB2B010A8A82120CF1300613C3E495285A
:100DE000FAE49529FBE4952AFCE4952BFD8008AAFA
:100DF00028AB29AC2AAD2B8A828B838CF0ED22851F
:100E00008223858324E4F52CF52DF530C203AA3323
:100E1000AB34AC358A828B838CF01217DCFD740105
:100E20002AF533E43BF5348C35EDFA700302119E5C
:100E3000BA25028003021137D202C200752E007556
:100E40002F00C204C205AB33AC34AD358B828C832A
:100E50008DF01217DCFAA3AB82AC838B338C348D0C
:100E6000358B828C838DF01217DCF5318A06BE300B
:100E70000040168A06EE24C6400FE52F75F00AA43E
:100E8000FEEA24D02EF52F80C38A06BE6100400AF8
:100E90008A06EE248540035302DFBA250280ADBAEC
:100EA0002A028045BA42028036BA43028040BA44E0
:100EB00003020FB2BA4903020FB2BA4C028025BA3C
:100EC0004E03020FC5BA4F03020FB7BA5302802078
:100ED000BA5503020FB0BA5803020FBE020FEDD28B
:100EE00000020E4CD201020E4CD204020E4CD2056E
:100EF000200417E53624FDF88836860308860408A2
:100F0000860518188B258C268D27E52F700B30054C
:100F1000047B0180027BFF8B2F752E00C3E52E958D
:100F20002F5005120BEFAA82300307E52E70030243
:100F30000FEDEA601ABA2002800DBA09028008BAE1
:100F40000D028003BA0A03300505E52FB52E1FE513
:100F50002E60C92004120530AB25AC26AD278B824C
:100F60008C838DF0E41217FA752E00020FEDBA088B
:100F70001CE52E60A7200411AB25AC26AD271BBBBA
:100F8000FF011C8B258C268D27152E808F20041B9E
:100F9000AB25AC26AD278B828C838DF0EA1217FA35
:100FA0000BBB00010C8B258C268D27052E020F1CF8
:100FB000C202752E0A8036C202752E08802FC20228
:100FC000752E108028E53624FDF8883686030886BD
:100FD0000408860518188B258C268D278B828C8318
:100FE0008DF0E52C1217FAA3E52D1217FAE52E70F5
:100FF00003021137120C0F7840E6700302113730EC
:101000000403021137E53624FDF888368603088686
:101010000408860518188B258C268D27053020029C
:10102000030210B0300135852537852638852739EC
:10103000758240120D88AE82AF83ABF0FC8537829B
:101040008538838539F0EE1217FAA3EF1217FAA349
:10105000EB1217FAA3EC1217FA02113730002685AB
:101060002537852638852739758240120D88AE824E
:10107000AF83ABF0FC8537828538838539F0EE127B
:1010800017FA021137852537852638852739758265
:1010900040120D88AE82AF83ABF0FC853782853875
:1010A000838539F0EE1217FAA3EF1217FA021137FF
:1010B00030013485253785263885273975824012D9
:1010C0000CF1AE82AF83ABF0FC8537828538838527
:1010D00039F0EE1217FAA3EF1217FAA3EB1217FA70
:1010E000A3EC1217FA805030002585253785263865
:1010F000852739758240120CF1AE82AF83ABF0FCCC
:101100008537828538838539F0EE1217FA80288575
:101110002537852638852739758240120CF1AE8235
:10112000AF83ABF0FC8537828538838539F0EE12CA
:1011300017FAA3EF1217FA200303020E0EAB33AC1B
:1011400034AD358B828C838DF01217DCFEA3AB821D
:10115000AC838B338C348D35EEFA7003020E0EBAED
:1011600025E18B828C838DF01217DCFABA6E028037
:1011700003BA4ECFE53624FDF88836860208860687
:1011800008860718188A258E268F278A828E838FD5
:10119000F0E52C1217FAA3E52D1217FA80A5AA3054
:1011A0007B008A828B8322AA82BA0A081099028065
:1011B000FB75990D10990280FB8A9922AA8274CD41
:1011C000C0E07411C0E0C023C0248A8222052AE452
:1011D000B52A02052B22AA8274302AFA24C6500AA4
:1011E00074072AFA3007034302208A820211BCE501
:1011F00082FAC4540FF582C0021211D6D002740FC5
:101200005AF5820211D6AA25AB26AC27AD28AE2905
:10121000753020EE2EFEED235401FF4206EA2AFA35
:10122000EB33FBEC33FCED33FDC3EE952C4008EEC5
:10123000C3952CFE430201D530D98A258B268C27F5
:101240008D288E2922858223858324E4F52AF52B97
:10125000AA31AB32AC338A828B838CF01217DCFD5F
:1012600074012AF531E43BF5328C33EDFA70030258
:1012700017D5BA250280030217CDC20BC20CC20DCE
:10128000C20EC20FC210C211C212C208C209C20AE3
:10129000752C00752D00752EFFAB31AC32AD338B44
:1012A000828C838DF01217DCFAA3AB82AC838B3176
:1012B0008C328D33BA25078A821211BC80928A063D
:1012C000BE3000402E8A06EE24C6402774FFB52E9D
:1012D00013E52D75F00AA4FEEA24D02EF52D70BF7B
:1012E000D20C80BBE52E75F00AA4FEEA24D02EF5C0
:1012F0002E80ACBA2E0A74FFB52EA4752E00809FE6
:101300008A06BE6100400E8A06EE2485400753021D
:10131000DFD2078002C207BA20028075BA23030217
:1013200013A0BA2A030213A5BA2B02805FBA2D02BA
:101330008055BA4202805FBA43030213EABA4403FB
:10134000021525BA450302153FBA460302153BBAFA
:101350004703021543BA4903021525BA4C02803BE4
:10136000BA4E03021547BA4F0302152CBA500302B6
:1013700014BEBA530302140EBA5503021531BA58FB
:1013800003021536021571D20B02129FD20D021202
:101390009FD20E02129FD21002129FD21102129FF0
:1013A000D21202129F74FFB52E2030100BE53414B8
:1013B000F88834862D02129FE53424FEF88834869E
:1013C00006088607188E2D02129F30100BE5341484
:1013D000F88834862E02129FE53424FEF88834867D
:1013E00006088607188E2E02129F30100AE5341464
:1013F000F888348602800FE53424FEF888348603AA
:10140000088604188B028A821211BC021576E53414
:1014100024FDF88834860308860408860518188B8E
:10142000258C268D278B828C838DF0121813AB822E
:10143000AC838B2F74FFB52E03852F2E200B1DC37D
:10144000E52F952D5016E52DC3952FF52DAB2D15B8
:101450002DEB60087582201211BC80F185258285F4
:1014600026838527F01217DCFBFA6029AB2E152E98
:10147000C3E464808BF063F08095F050188A821288
:1014800011BCAB25AC26AD270BBB00010C8B258C0A
:10149000268D2780C7200B03021576C3E52F952DD7
:1014A0004003021576E52DC3952FF52DAB2D152D97
:1014B000EB70030215767582201211BC80EEE534C4
:1014C00024FDF88834860308860408860518188BDE
:1014D000258C268D27E527FB30E7047A438013EB24
:1014E000546060047A50800AEB30E6047A49800246
:1014F0007A588A82C0021211BC75823A1211BC75E8
:1015000082301211BC7582781211BCD002BA490225
:10151000800BBA500280068526821211EF85258243
:101520001211EF8051D20F752C0A804A752C088059
:1015300045752C0A8040752C10803BD2088037D22C
:10154000098033D20A802FE53424FDF888348603DD
:1015500008860408860518188B258C268D278B8213
:101560008C838DF0E52A1217FAA3E52B1217FA8067
:10157000058A821211BC200806200903300A5AE5A8
:101580003424FCF888348603088604088605088617
:10159000061818188B258C268D278E287525E8753A
:1015A00026027527808525358526368527377401DF
:1015B0002535FEE43536FFAB378E258F268B278504
:1015C00035828536838537F01217DCFBFA7003020B
:1015D00012508A821211BC80CCE52C70030212508A
:1015E0007B3F30102BE53414F88834E6FC3395E06B
:1015F000FDFEFF8C258D268E278F28200F5EAC25C3
:101600007D007E007F008C258D268E278F28804CC4
:1016100030111FE53424FCF8883486040886050858
:1016200086060886071818188C258D268E278F2881
:10163000802AE53424FEF88834860408860518EDEF
:101640003395E0FEFF8C258D268E278F28200F0CEA
:10165000AC25AD267E007F008E278F28301243E513
:101660002545264527452860397408B52C0C758218
:1016700030C0031211BCD00380287410B52C237520
:101680008230C0031211BCD00330070C758278C0C1
:10169000031211BCD003800A758258C0031211BC1A
:1016A000D003300F25AC25AD26AE27E528FF30E767
:1016B00017C3E49CFCE49DFDE49EFEE49FFF8C25A3
:1016C0008D268E278F288002C20F752F00D2138B94
:1016D00000752900C000121206D00020130DE52964
:1016E000C4FCE6FD4CF61888038002A629052FB23B
:1016F00013E52545264527452870D68803E52D7036
:1017000003752D01200C1A200B17E52F04FCC3953F
:101710002D500E758220C0031211BCD003152D80F0
:10172000E9300F0E75822DC0031211BCD003152DA8
:101730008024E52F6020300D0E75822BC00312111E
:10174000BCD003152D800F300E0C758220C0031203
:1017500011BCD003152D200B1EAC2D152DC3E52F6C
:101760009C5027300C047C3080027C208C82C0038B
:101770001211BCD00380E2C3E52F952D5009E52D51
:10178000C3952FF52D8003752D008B00AB2F152FE2
:10179000EB6022B21320130A08E6C4540FFB8B2916
:1017A00080078603740F5BF529852982C00012111A
:1017B000D6D00080D7200B03021250AB2D152DEB95
:1017C00070030212507582201211BC80EE8A8212C0
:1017D00011BC021250852A82852B832220F71430F7
:1017E000F6148883A88220F507E6A8837583002273
:1017F000E280F7E49322E022E47320F71030F61140
:101800008883A88220F507F6A88375830022F280DA
:10181000F7F022AA82AB83ACF07D007E008A828B37
:10182000838CF01217DCFFA3AA82AB83EF60070D55
:10183000BD00EA0E80E78D828E832200000000004A
:00000001FF
