:0300000002048D6A
:03002B000204814B
:10002E00C00078B10000D8FCD00022C000C0017919
:10003E002D78A6D8FED9FADAF6D001D00022D2B3A6
:10004E0012002EC2B322A2E792B7A2E692B6A2E5A2
:10005E0092B5A2E492B412004C12002EA2E392B713
:10006E00A2E292B6A2E192B5A2E092B412004C22A4
:10007E00D2B2020054C2B2020054C2B374331200A0
:10008E008374331200837432120083742812008337
:10009E00740C1200837401120083C0027A021200E3
:1000AE0039D00222E493600612007EA380F6224429
:1000BE00404480020083C0E0E8C4540F4430120074
:0C00CE007EE8540F443012007ED0E02287
:1000DA00C0E0C0D0C000C001C002E4F538F539F56F
:1000EA003AF53BF53C7A20E533A2E779047830E625
:1000FA0033F608D9FA79057838E636D4F608D9F904
:10010A00DAE5D002D001D000D0D0D0E022C0E0C0E1
:10011A00D0C000C001C002E4F538F539F53AF53B24
:10012A00F53C7A20E533A2E779047830E633F6081D
:10013A00D9FA79057838C0D0E6243320E70224D0EA
:10014A0020E30224FDD0D033F608D9EADAD6D00269
:10015A00D001D000D0D0D0E022C0E0C0D0C000C0D2
:10016A0001C0027A207905C3783CE613C0D030E793
:10017A000224D030E30224FDF618D0D0D9EC790459
:10018A007833E613F618D9FADADBD002D001D000B8
:10019A00D0D0D0E022C0E0C0D0E5302534F530E53B
:1001AA00313535F531E5323536F532E5333537F562
:1001BA0033D0D0D0E022C0E0C0D0C3E5309534F5CA
:1001CA0030E5319535F531E5329536F532E5339539
:1001DA0037F533D0D0D0E022C0E0C0D0C3E53095A7
:1001EA0034E5319535E5329536E53395379200D0C9
:1001FA00D0D0E022C0E0C0D0C3E5349530E53595D3
:10020A0031E5369532E53795339200D0D0D0E022E9
:10021A00C0E0C0D0C200C3E53495307014E535950E
:10022A0031700EE53695327008E53795337002D293
:10023A0000D0D0D0E02212021A2000030201FE22CE
:10024A0012021A2000030201E222C0E0C0F0C0D06C
:10025A00C000C001C002C003E5308534F0A4F8A98B
:10026A00F0E5318534F0A429F9E435F0FAE5308572
:10027A0035F0A429F9E5F03AFAE433FBE53285349E
:10028A00F0A42AFAE5F03BFBE5318535F0A42AFA19
:10029A00E5F03BFBE5308536F0A42AFAE5F03BFBB6
:1002AA00E5338534F0A42BFBE5328535F0A42BFB2E
:1002BA00E5318536F0A42BFBE5308537F0A42BFB1E
:1002CA008B338A3289318830D003D002D001D000F2
:1002DA00D0D0D0F0D0E022C0E0C0D0C000C001C071
:1002EA0002C003C0047C20E4F8F9FAFBC3E530330A
:1002FA00F530E53133F531E53233F532E53333F5AF
:10030A0033E833F8E933F9EA33FAEB33FBC3E89518
:10031A0034E99535EA9536EB95374013E89534F884
:10032A00E99535F9EA9536FAEB9537FB433001DC66
:10033A00BBD004D003D002D001D000D0D0D0E0226C
:10034A0085303485313585323685333722E530C5F7
:10035A0034F530E531C535F531E532C536F532E5E6
:06036A0033C537F5332214
:10037000506C61796572313A2020202020202020A5
:10038000202000506C61796572323A2020202020B4
:1003900020202020200057696E6E657221004C6F6E
:1003A000736572210057696E6E657221004C6F7320
:1003B00065722100506C617920616761696E3F0050
:1003C000202020202020202020202020202020202D
:1003D000007AB079FA78A6D8FED9FADAF622853D05
:1003E00030853E31853F328540337534FD75354368
:1003F00075360375370012025475344375356675CA
:10040000362575370012019F85303D85313E853296
:100410003F85334022C002AA3D120039D002C002FB
:10042000AA3E120039D002C002AA3F120039D002FF
:10043000C002AA40120039D00222C000A83C12001B
:10044000C4D000C000A83B1200C4D000C000A83A2D
:100450001200C4D000C000A8391200C4D000C000EF
:10046000A8381200C4D00022E58954004401F5895F
:10047000D2A9C28C2275C80275CB0075CA00D29071
:1004800022C2CF0530321204751200882275817F96
:10049000120486C0E07401141200BFD0E0C083C013
:1004A00082C0E09003701200B2D0E0D082D083C04E
:1004B000E07401141200BDD0E0C083C082C0E0909F
:1004C00003831200B2D0E0D082D083D2CA20C5FD0F
:1004D00085CD3D753E01753F8785CC40C2CAC0E0E1
:1004E000740B141200BFD0E0C000A8451200C4D0A5
:1004F00000C0E0740B141200BDD0E0C000A846128A
:1005000000C4D000B291208012C0027A32120039A9
:10051000D0022080063080FD0204DE1203DE1204C9
:1005200015E53EA2E3400302052D020576020530E3
:1005300020A420C0027A32120039D00220A4143044
:10054000A4FDE4E5452401F546B40504E402051BD9
:100550000205DD20A6DAC0027A32120039D002206C
:10056000A6CE30A6FDE4E5462401F546B40504E434
:1005700002051B02066E20A42FC0027A3212003937
:10058000D00220A42330A4FDE4E545B4008DF5306D
:100590007534017535007536007537001201C0E5F8
:1005A00030D4F545E402051B20A6CBC0027A3212F6
:1005B0000039D00220A6BF30A6FDE4E546B4001AFB
:1005C000F530753401753500753600753700120148
:1005D000C0E530D4F546E40205DA02051BC0E0743C
:1005E00009141200BFD0E0C083C082C0E09003961F
:1005F0001200B2D0E0D082D083C0E074091412009F
:10060000BDD0E0C083C082C0E09003AD1200B2D084
:10061000E0D082D083C0027A32120039D002C0E02A
:100620007401141200BFD0E0C083C082C0E0900308
:10063000B41200B2D0E0D082D083C0E074011412B2
:1006400000BDD0E0C083C082C0E09003C01200B201
:10065000D0E0D082D08330A012C0027A32120039AA
:10066000D00230A00620A0FD0206FF0205DDC0E09A
:100670007409141200BFD0E0C083C082C0E09003B0
:10068000A51200B2D0E0D082D083C0E07409141269
:1006900000BDD0E0C083C082C0E090039E1200B2D3
:1006A000D0E0D082D083C0027A32120039D002C0AA
:1006B000E07401141200BFD0E0C083C082C0E0909B
:1006C00003B41200B2D0E0D082D083C0E074011431
:1006D0001200BDD0E0C083C082C0E09003C0120011
:1006E000B2D0E0D082D08330A012C0027A321200A1
:1006F00039D00230A00620A0FD0206FF02066E756A
:08070000450075460002051BCF
:00000001FF
