:030000000201AA50
:0100030032CA
:03000B00020130BF
:0100130032BA
:01001B0032B2
:0100230032AA
:03002B0002014C83
:10002E00C00078B10000D8FCD00022C000C0017919
:10003E002D78A6D8FED9FADAF6D001D00022D2B3A6
:10004E0012002EC2B322A2E792B7A2E692B6A2E5A2
:10005E0092B5A2E492B412004C12002EA2E392B713
:10006E00A2E292B6A2E192B5A2E092B412004C22A4
:10007E00D2B2020054C2B2020054C2B374331200A0
:10008E008374331200837432120083742812008337
:10009E00740C1200837401120083C0027A021200E3
:1000AE0039D00222E493600612007EA380F6224429
:1000BE00404480020083C0E0E8C4540F4430120074
:1000CE007EE8540F443012007ED0E02254696D65F4
:1000DE002031323A30303A303020414D00416C619F
:1000EE00726D2020204E4F54205345542000416CF9
:1000FE0061726D6D202030303A303020414D00411C
:10010E004D00504D0020002A00E58954F04401F5C1
:10011E0089758CEA758AE875F4EA75F2E8D2A9D287
:10012E008C22B2913275C80075CDA975CC9A75CB5B
:10013E00A975CA9AE4F530F531D2ADD2CA22C2CF32
:10014E00B290C0E0C0D00530E53070020531E53028
:10015E00B4E844E531B4033FD200300504B28C80DC
:10016E0002C28CE4F530F53130002CE5332401D495
:10017E00B46001E4F533B4001EE5342401D4B46058
:10018E0001E4F534B40010E5352401D4B41306743B
:10019E0001F535B202F535D0D0D0E03275817F123F
:1001AE000117120133120088D2AFC0E0740114128D
:1001BE0000BFD0E0C083C082C0E09000DA1200B26F
:1001CE00D0E0D082D083C0E07401141200BDD0E024
:1001DE00C083C082C0E09000EB1200B2D0E0D082AB
:1001EE00D083D20075320075330075340075351228
:1001FE00753600753700753812C201C202C203C2CD
:10020E0004D205208011C0027A32120039D00220A9
:10021E0080053080FDC20520C511C0027A32120061
:10022E0039D00220C50530C5FDB20120A425C0027B
:10023E007A32120039D00220A41930A4FD20010E0A
:10024E00E5332401D4B46001E4F5330202EEB204C6
:10025E000202EE20A238C0027A32120039D00220F9
:10026E00A22C30A2FD200113E533E4F533E534244E
:10027E0001D4B46001E4F5340202EEE536E4F5365D
:10028E00E5372401D4B46001E4F5370202EE20A074
:10029E0032C0027A32120039D00220A02630A0FDE0
:1002AE00200110E5352401D4B41303E47401F535AF
:1002BE000202EEE5382401D4B41303E47401F538D8
:1002CE000202EE208227C0027A32120039D00220BA
:1002DE00821B3082FD200104B2028004B203800032
:1002EE00C2CAE4F530F531F532D2CA8006200003D9
:1002FE00020211C200C0E07406141200BFD0E0C0AA
:10030E0000A8351200C4D000C0E07409141200BF5A
:10031E00D0E0C000A8341200C4D000C0E0740C14A9
:10032E001200BFD0E0C000A8331200C4D000C0E05D
:10033E00740F141200BFD0E0200214C083C082C01C
:10034E00E090010D1200B2D0E0D082D0838012C0B6
:10035E0083C082C0E09001101200B2D0E0D082D0F3
:10036E0083E534B53711E4E535B5380BE4E502B570
:10037E000305300402D20520041EC0E074011412DD
:10038E0000BDD0E0C083C082C0E09000EB1200B28E
:10039E00D0E0D082D0838075C0E07401141200BD0D
:1003AE00D0E0C083C082C0E09000FC1200B2D0E06A
:1003BE00D082D083C0E07409141200BDD0E0C0001A
:1003CE00A8381200C4D000C0E0740C141200BDD0C6
:1003DE00E0C000A8371200C4D000C0E0740F1412A1
:1003EE0000BDD0E0200314C083C082C0E090010D98
:1003FE001200B2D0E0D082D0838012C083C082C0FF
:10040E00E09001101200B2D0E0D082D08320011E05
:10041E00C0E07406141200BDD0E0C083C082C0E0FC
:10042E009001131200B2D0E0D082D083801CC0E0C5
:10043E007406141200BDD0E0C083C082C0E09001EB
:0D044E00151200B2D0E0D082D0830202115E
:00000001FF
