:1000000002000375812712008FE582600302006FF2
:10001000780079007A007B007C007D00EC4D601C4C
:1000200088828983E493A3A882A9838A828B83F040
:10003000A3AA82AB831CBCFFE31D80E07582007520
:1000400083007C007D00EC4D600AE4F0A31CBCFF43
:10005000F51D80F27582007583007C007D00EC4DFB
:10006000600AE4F0A31CBCFFF51D80F212008E12A2
:1000700000A580FE48656C6C6F2C20576F726C6415
:10008000210A003C4E4F20464C4F41543E00227501
:100090008E11438780759852759B00759AF4759BF5
:1000A0001E758200227474C0E07400C0E07480C0C9
:1000B000E01200D015811581158122020711858279
:1000C0001885831985F01A85091B9000BB02017AF7
:1000D000C008858108E50824FBF51BE50824FBF82A
:1000E000861808861908861A9000BB12017AD00873
:1000F00022AA827402C0E07401C0E0C00AC00B8A68
:1001000082220511E4B51102051222AA8274302A56
:10011000FA24C6500A74072AFA3000034302208AE0
:10012000820200F1E582FAC4540FF582C002120186
:100130000BD002740F5AF58202010BAA0CAB0DAC66
:100140000EAD0FAE10751720EE2EFEED235401FFFD
:100150004206EA2AFAEB33FBEC33FCED33FDC3EE47
:1001600095134008EEC39513FE430201D517D98AB3
:100170000C8B0D8C0E8D0F8E102285820A85830BC1
:10018000E4F511F512AA18AB19AC1A8A828B838C8C
:10019000F0120726FD74012AF518E43BF5198C1AB4
:1001A000EDFA700302070ABA25028003020702C2B1
:1001B00004C205C206C207C208C209C20AC20BC2F3
:1001C00001C202C2037513007514007515FFAB1848
:1001D000AC19AD1A8B828C838DF0120726FAA3AB73
:1001E00082AC838B188C198D1ABA25078A8212006B
:1001F000F180928A06BE3000402E8A06EE24C64068
:100200002774FFB51513E51475F00AA4FEEA24D08F
:100210002EF51470BFD20580BBE51575F00AA4FE5B
:10022000EA24D02EF51580ACBA2E0A74FFB515A4B9
:10023000751500809F8A06BE6100400E8A06EE2476
:100240008540075302DFD2008002C200BA2002803C
:1002500075BA23030202D5BA2A030202DABA2B02C4
:10026000805FBA2D028055BA4202805FBA43030212
:10027000031FBA440302045ABA4503020474BA467F
:1002800003020470BA4703020478BA490302045A0D
:10029000BA4C02803BBA4E0302047CBA4F030204FC
:1002A00061BA50030203F3BA5303020343BA55037E
:1002B000020466BA580302046B0204A6D2040201C7
:1002C000D4D2060201D4D2070201D4D2090201D449
:1002D000D20A0201D4D20B0201D474FFB51520302A
:1002E000090BE51B14F8881B86140201D4E51B24B6
:1002F000FEF8881B8606088607188E140201D43083
:10030000090BE51B14F8881B86150201D4E51B2494
:10031000FEF8881B8606088607188E150201D43061
:10032000090AE51B14F8881B8602800FE51B24FED2
:10033000F8881B8603088604188B028A821200F153
:100340000204ABE51B24FDF8881B8603088604081D
:10035000860518188B0C8C0D8D0E8B828C838DF07E
:1003600012075BAB82AC838B1674FFB51503851641
:100370001520041DC3E51695145016E514C39516F3
:10038000F514AB141514EB60087582201200F1808F
:10039000F1850C82850D83850EF0120726FBFA602D
:1003A00029AB151515C3E464808BF063F08095F0DC
:1003B00050188A821200F1AB0CAC0DAD0E0BBB00D5
:1003C000010C8B0C8C0D8D0E80C72004030204AB36
:1003D000C3E516951440030204ABE514C39516F566
:1003E00014AB141514EB70030204AB7582201200D9
:1003F000F180EEE51B24FDF8881B860308860408BF
:10040000860518188B0C8C0D8D0EE50EFB30E7045D
:100410007A438013EB546060047A50800AEB30E634
:10042000047A4980027A588A82C0021200F17582E9
:100430003A1200F17582301200F17582781200F1E3
:10044000D002BA4902800BBA50028006850D821292
:100450000124850C821201248051D20875130A8070
:100460004A751308804575130A8040751310803B48
:10047000D2018037D2028033D203802FE51B24FDC6
:10048000F8881B860308860408860518188B0C8CD0
:100490000D8D0E8B828C838DF0E511120742A3E542
:1004A0001212074280058A821200F1200106200202
:1004B0000330035AE51B24FCF8881B8603088604D6
:1004C0000886050886061818188B0C8C0D8D0E8E64
:1004D0000F750C83750D00750E80850C1C850D1D28
:1004E000850E1E7401251CFEE4351DFFAB1E8E0C0F
:1004F0008F0D8B0E851C82851D83851EF0120726AD
:10050000FBFA70030201858A821200F180CCE513A8
:1005100070030201857B2730092BE51B14F8881B2B
:10052000E6FC3395E0FDFEFF8C0C8D0D8E0E8F0FDB
:1005300020085EAC0C7D007E007F008C0C8D0D8E43
:100540000E8F0F804C300A1FE51B24FCF8881B8699
:10055000040886050886060886071818188C0C8D6E
:100560000D8E0E8F0F802AE51B24FEF8881B860453
:1005700008860518ED3395E0FEFF8C0C8D0D8E0E70
:100580008F0F20080CAC0CAD0D7E007F008E0E8FFF
:100590000F300B43E50C450D450E450F60397408CF
:1005A000B5130C758230C0031200F1D0038028749B
:1005B00010B51323758230C0031200F1D003300050
:1005C0000C758278C0031200F1D003800A7582583E
:1005D000C0031200F1D003300825AC0CAD0DAE0EF7
:1005E000E50FFF30E717C3E49CFCE49DFDE49EFEAD
:1005F000E49FFF8C0C8D0D8E0E8F0F8002C208754C
:100600001600D20C8B00751000C00012013BD00008
:10061000200C0DE510C4FCE6FD4CF61888038002A2
:10062000A6100516B20CE50C450D450E450F70D60B
:100630008803E514700375140120051A200417E5DA
:100640001604FCC39514500E758220C0031200F1ED
:10065000D003151480E930080E75822DC0031200F6
:10066000F1D00315148024E516602030060E758243
:100670002BC0031200F1D0031514800F30070C7546
:100680008220C0031200F1D003151420041EAC1404
:100690001514C3E5169C50273005047C3080027C7D
:1006A000208C82C0031200F1D00380E2C3E51695CE
:1006B000145009E514C39516F51480037514008BC6
:1006C00000AB161516EB6022B20C200C0A08E6C42B
:1006D000540FFB8B1080078603740F5BF510851099
:1006E00082C00012010BD00080D7200403020185D4
:1006F000AB141514EB70030201857582201200F112
:1007000080EE8A821200F1020185851182851283B2
:1007100022AA82BA0A0810990280FB75990D1099D5
:100720000280FB8A992220F71430F6148883A8826D
:1007300020F507E6A88375830022E280F7E4932280
:10074000E02220F71030F6118883A88220F507F602
:10075000A88375830022F280F7F022AA82AB83ACD3
:10076000F07D007E008A828B838CF0120726FFA327
:10077000AA82AB83EF60070DBD00EA0E80E78D8291
:100780008E83220000000000000000000000000036
:00000001FF
