:1000000002000375813C12010AE582600302006F61
:10001000780079007A007B007C007D00EC4D601C4C
:1000200088828983E493A3A882A9838A828B83F040
:10003000A3AA82AB831CBCFFE31D80E07582007520
:1000400083007C007D00EC4D600AE4F0A31CBCFF43
:10005000F51D80F27582007583007C007D00EC4DFB
:10006000600AE4F0A31CBCFFF51D80F21201091226
:1000700002CE80FE4C434420342D626974207465A6
:1000800073743A0048656C6C6F2C20576F726C6407
:1000900021004C434420746573742E0A54797065B2
:1000A00020736F6D657468696E6720616E6420707F
:1000B00072657373203C456E7465723E0A286974DC
:1000C0002077696C6C2073686F7720696E20746884
:1000D00065204C43442C2025642063686172616371
:1000E00074657273206D6178293A20000A54797022
:1000F0006520736F6D657468696E673A20003C4EC9
:100100004F20464C4F41543E002275E60075E700F3
:1001100075D60075D70075CE0075CF0075C6007511
:10012000C700438780759852759B00759AF4759B3C
:100130001E75AE0075820022AA82C28C5389F043DC
:100140008901EA24FA5006EA24FBFA80027A018A3D
:100150001C751D00751E00751F0090FFEA74FFF5E9
:10016000F01203A0AA82AB83C28D8B047D008C8C1D
:100170007B008A8AD28C308DFD22AA82AB837C00E0
:100180007D00C3EC9AED9B502B7E00BE0400501DF9
:100190007582FAC002C003C004C005C0061201384F
:1001A000D006D005D004D003D0020E80DE0CBC00F7
:1001B000D10D80CE22D2B3758228120138C2B3226B
:1001C000AA828AE0A2E792B7A2E692B6A2E592B529
:1001D000A2E492B4C0021201B5758228120138D08F
:1001E000028AE0A2E392B7A2E292B6A2E192B5A29D
:1001F000E092B40201B5AA82D2B28A821201C09002
:10020000000202017AAA82C2B28A821201C0900060
:100210000502017AC2B390001412017A758233127A
:10022000020575823312020575823212020575824B
:100230002812020575820C12020575820112020550
:1002400090001402017AAA82AB83ACF07402B51A52
:10025000047DC080027D808D82C002C003C0041274
:10026000020590000512017AD004D003D0027D006F
:100270007E00ED2AFFEE3BF88C018F82888389F0A7
:10028000120384FF60208F82C002C003C004C00537
:10029000C0061201F6D006D005D004D003D0020D5E
:1002A000BD00CF0E80CC3000248D028E03C3EA94B3
:1002B00010EB648094805015758220C002C0031238
:1002C00001F6D003D0020ABA00E30B80E0229001CD
:1002D000F412017A120214751A01D200900074759A
:1002E000F080120246751A02D20090008475F080E8
:1002F0001202467410C0E0E4C0E07492C0E07400E2
:10030000C0E07480C0E0120423E58124FBF5813055
:1003100098FD7A007B00BB1000503AC002C0031267
:100320000444AC82D003D002BC0A028003BC0D1A84
:10033000EA2409F87600751A02D20090000975F0D7
:1003400040C002120246D002800BEB2409F8A6043A
:100350000B8B0280C1BA1014EA2409F87600751AD2
:1003600002D20090000975F04012024674ECC0E021
:100370007400C0E07480C0E012042315811581155B
:100380008102030F20F71430F6148883A88220F529
:1003900007E6A88375830022E280F7E49322E02237
:1003A000AAF0FBE582851CF0A4FCADF0E583851C7A
:1003B000F0A42DFDE435F0FEE582851DF0A42DFDB1
:1003C000E5F03EFEE433FFEA851CF0A42EFEE5F0E6
:1003D0003FFFE583851DF0A42EFEE5F03FFFE5829B
:1003E000851EF0A42EFEE5F03FFFEB851CF0A42F48
:1003F000FFEA851DF0A42FFFE583851EF0A42FFFE3
:10040000E582851FF0A42F8EF08D838C8222020A54
:100410007785823085833185F032851B3390040ED9
:100420000204E0C008858108E50824FBF533E508EF
:1004300024FBF8863008863108863290040E1204B8
:10044000E0D0082210980280FBAA998A82C002128A
:100450000A77D0028A8222AA827468C0E07404C03B
:10046000E0C022C0238A82220529E4B52902052A98
:1004700022AA8274302AFA24C6500A74072AFA3053
:1004800001034302208A82020457E582FAC4540F12
:10049000F582C002120471D002740F5AF582020470
:1004A00071AA24AB25AC26AD27AE28752F20EE2EE1
:1004B000FEED235401FF4206EA2AFAEB33FBEC334C
:1004C000FCED33FDC3EE952B4008EEC3952BFE43A8
:1004D0000201D52FD98A248B258C268D278E2822A0
:1004E000858222858323E4F529F52AAA30AB31AC35
:1004F000328A828B838CF0120384FD74012AF530DA
:10050000E43BF5318C32EDFA7003020A70BA250231
:100510008003020A68C205C206C207C208C209C235
:100520000AC20BC20CC202C203C204752B00752C96
:1005300000752DFFAB30AC31AD328B828C838DF0EA
:10054000120384FAA3AB82AC838B308C318D32BA28
:1005500025078A8212045780928A06BE3000402EF8
:100560008A06EE24C6402774FFB52D13E52C75F0DE
:100570000AA4FEEA24D02EF52C70BFD20680BBE57B
:100580002D75F00AA4FEEA24D02EF52D80ACBA2EEB
:100590000A74FFB52DA4752D00809F8A06BE6100E8
:1005A000400E8A06EE248540075302DFD201800206
:1005B000C201BA20028075BA230302063BBA2A039D
:1005C000020640BA2B02805FBA2D028055BA420261
:1005D000805FBA4303020685BA44030207C0BA45E6
:1005E000030207DABA46030207D6BA47030207DE58
:1005F000BA49030207C0BA4C02803BBA4E03020755
:10060000E2BA4F030207C7BA5003020759BA5303AD
:100610000206A9BA55030207CCBA58030207D10251
:10062000080CD20502053AD20702053AD2080205A3
:100630003AD20A02053AD20B02053AD20C02053A26
:1006400074FFB52D20300A0BE53314F88833862C5F
:1006500002053AE53324FEF8883386060886071833
:100660008E2C02053A300A0BE53314F88833862DB8
:1006700002053AE53324FEF8883386060886071813
:100680008E2D02053A300A0AE53314F888338602C3
:10069000800FE53324FEF888338603088604188B20
:1006A000028A82120457020811E53324FDF88833C8
:1006B000860308860408860518188B248C258D2649
:1006C0008B828C838DF0120AA5AB82AC838B2E7447
:1006D000FFB52D03852E2D20051DC3E52E952C502D
:1006E00016E52CC3952EF52CAB2C152CEB6008755C
:1006F000822012045780F18524828525838526F087
:10070000120384FBFA6029AB2D152DC3E464808BA2
:10071000F063F08095F050188A82120457AB24AC35
:1007200025AD260BBB00010C8B248C258D2680C7A4
:10073000200503020811C3E52E952C400302081181
:10074000E52CC3952EF52CAB2C152CEB7003020871
:100750001175822012045780EEE53324FDF88833AA
:10076000860308860408860518188B248C258D2698
:10077000E526FB30E7047A438013EB546060047A8B
:1007800050800AEB30E6047A4980027A588A82C0A7
:100790000212045775823A120457758230120457B8
:1007A000758278120457D002BA4902800BBA5002FF
:1007B000800685258212048A85248212048A80514B
:1007C000D209752B0A804A752B088045752B0A8043
:1007D00040752B10803BD2028037D2038033D20485
:1007E000802FE53324FDF8883386030886040886C5
:1007F0000518188B248C258D268B828C838DF0E533
:1008000029120A8CA3E52A120A8C80058A82120416
:100810005720020620030330045AE53324FCF888ED
:100820003386030886040886050886061818188B80
:10083000248C258D268E277524FE7525007526802F
:1008400085243485253585263674012534FEE43526
:1008500035FFAB368E248F258B26853482853583F4
:100860008536F0120384FBFA70030204EB8A8212CD
:10087000045780CCE52B70030204EB7B3C300A2B41
:10088000E53314F88833E6FC3395E0FDFEFF8C2455
:100890008D258E268F2720095EAC247D007E007F6B
:1008A000008C248D258E268F27804C300B1FE5333E
:1008B00024FCF8883386040886050886060886071F
:1008C0001818188C248D258E268F27802AE533242E
:1008D000FEF88833860408860518ED3395E0FEFFA0
:1008E0008C248D258E268F2720090CAC24AD257EE7
:1008F000007F008E268F27300C43E52445254526B2
:10090000452760397408B52B0C758230C00312047A
:1009100057D00380287410B52B23758230C0031282
:100920000457D00330010C758278C003120457D0ED
:1009300003800A758258C003120457D0033009257A
:10094000AC24AD25AE26E527FF30E717C3E49CFCB9
:10095000E49DFDE49EFEE49FFF8C248D258E268F72
:10096000278002C209752E00D20D8B00752800C0A9
:10097000001204A1D000200D0DE528C4FCE6FD4CBA
:10098000F61888038002A628052EB20DE524452519
:100990004526452770D68803E52C7003752C012069
:1009A000061A200517E52E04FCC3952C500E7582FF
:1009B00020C003120457D003152C80E930090E75AE
:1009C000822DC003120457D003152C8024E52E601D
:1009D0002030070E75822BC003120457D003152C4C
:1009E000800F30080C758220C003120457D0031505
:1009F0002C20051EAC2C152CC3E52E9C5027300650
:100A0000047C3080027C208C82C003120457D00307
:100A100080E2C3E52E952C5009E52CC3952EF52CCC
:100A20008003752C008B00AB2E152EEB6022B20DCF
:100A3000200D0A08E6C4540FFB8B28800786037438
:100A40000F5BF528852882C000120471D00080D782
:100A50002005030204EBAB2C152CEB70030204EB16
:100A600075822012045780EE8A821204570204EB2A
:100A7000852982852A8322AA82BA0A0810990280CF
:100A8000FB75990D10990280FB8A992220F710308E
:100A9000F6118883A88220F507F6A88375830022C3
:100AA000F280F7F022AA82AB83ACF07D007E008A50
:100AB000828B838CF0120384FFA3AA82AB83EF6046
:100AC000070DBD00EA0E80E78D828E8322000000B4
:00000001FF
