:030000000203A553
:10000300C0E0C0D0C000C001C002E4F538F539F546
:100013003AF53BF53C7A20E533A2E779047830E6FC
:1000230033F608D9FA79057838E636D4F608D9F9DB
:10003300DAE5D002D001D000D0D0D0E022C0E0C0B9
:10004300D0C000C001C002E4F538F539F53AF53BFC
:10005300F53C7A20E533A2E779047830E633F608F5
:10006300D9FA79057838C0D0E6243320E70224D0C2
:1000730020E30224FDD0D033F608D9EADAD6D00241
:10008300D001D000D0D0D0E022C0E0C0D0C000C0AA
:1000930001C0027A207905C3783CE613C0D030E76B
:1000A3000224D030E30224FDF618D0D0D9EC790431
:1000B3007833E613F618D9FADADBD002D001D00090
:1000C300D0D0D0E022C0E0C0D0E5302534F530E513
:1000D300313535F531E5323536F532E5333537F53A
:1000E30033D0D0D0E022C0E0C0D0C3E5309534F5A2
:1000F30030E5319535F531E5329536F532E5339511
:1001030037F533D0D0D0E022C0E0C0D0C3E530957E
:1001130034E5319535E5329536E53395379200D0A0
:10012300D0D0E022C0E0C0D0C3E5349530E53595AA
:1001330031E5369532E53795339200D0D0D0E022C1
:10014300C0E0C0D0C200C3E53495307014E53595E6
:1001530031700EE53695327008E53795337002D26B
:1001630000D0D0D0E0221201432000030201272255
:1001730012014320000302010B22C0E0C0F0C0D0F3
:10018300C000C001C002C003E5308534F0A4F8A963
:10019300F0E5318534F0A429F9E435F0FAE530854A
:1001A30035F0A429F9E5F03AFAE433FBE532853476
:1001B300F0A42AFAE5F03BFBE5318535F0A42AFAF1
:1001C300E5F03BFBE5308536F0A42AFAE5F03BFB8E
:1001D300E5338534F0A42BFBE5328535F0A42BFB06
:1001E300E5318536F0A42BFBE5308537F0A42BFBF6
:1001F3008B338A3289318830D003D002D001D000CA
:10020300D0D0D0F0D0E022C0E0C0D0C000C001C048
:1002130002C003C0047C20E4F8F9FAFBC3E53033E1
:10022300F530E53133F531E53233F532E53333F586
:1002330033E833F8E933F9EA33FAEB33FBC3E895F0
:1002430034E99535EA9536EB95374013E89534F85C
:10025300E99535F9EA9536FAEB9537FB433001DC3E
:10026300BBD004D003D002D001D000D0D0D0E02244
:1002730085303485313585323685333722E530C5CF
:1002830034F530E531C535F531E532C536F532E5BE
:0602930033C537F53322EC
:1002990022C00078B10000D8FCD00022C000C00103
:1002A900792D78A6D8FED9FADAF6D001D00022D273
:1002B900B3120299C2B322A2E792B7A2E692B6A2FA
:1002C900E592B5A2E492B41202B8120299A2E3929D
:1002D900B7A2E292B6A2E192B5A2E092B41202B834
:1002E90022D2B20202C0C2B20202C0C2B374331235
:1002F90002EF74331202EF74321202EF7428120201
:10030900EF740C1202EF74011202EFC0027A0212AA
:1003190002A5D00222E49360061202EAA380F62223
:10032900444044800202EFC0E0E8C4540F44301254
:1003390002EAE8540F44301202EAD0E0224672651C
:100349007175656E637928487A293A20004E6F20C5
:100359007369676E616C20202020202000C000A8EE
:100369003C120330D000C000A83B120330D000C0BB
:1003790000A83A120330D000C000A839120330D0C7
:1003890000C000A838120330D0002275C80075CB10
:100399000075CA00221203941202F42275817F1299
:1003A900039ED280C0E074011412032BD0E0C083F5
:1003B900C082C0E090034612031ED0E0D082D083F1
:1003C900C2CA75CC0075CD00C2CFD2CA20CF782061
:1003D90080FA20CF723080FAC2CA75CC0075CD0080
:1003E900C2CFD2CA20CF602080FA20CF5A3080FAFB
:1003F900C2CA85CC3085CD31753200753300E5CC64
:1004090045CD60437534EE7535D3753600753700C3
:1004190012017D7534647535007536007537001223
:10042900020A1202737530007531CA75329A753332
:100439003B12020AC0E0740114120329D0E0120031
:10044900031203660203C9C0E0740114120329D020
:10045900E0C083C082C0E090035612031ED0E0D0F2
:0604690082D0830203C9EA
:00000001FF
