:100000000C9434000C9446000C9446000C9446006A
:100010000C9446000C9446000C9446000C94460048
:100020000C9446000C9446000C9446000C94460038
:100030000C9446000C9446000C9446000C94460028
:100040000C9446000C9446000C9446000C94460018
:100050000C9446000C9446000C9446000C94460008
:100060000C9446000C94460011241FBECFEFD8E03C
:10007000DEBFCDBF21E0A0E0B1E001C01D92A23003
:10008000B207E1F70E9461000C9472000C9400002A
:1000900020918400309185008091840090918500AA
:1000A000821B930B80389E43B8F30895CF93DF9360
:1000B000EC01219718F4DF91CF9108950E94480038
:1000C000F8CF81E084B915B8809181008160809378
:1000D0008100C1E085B18C2785B984EF91E00E9451
:0800E0005600F8CFF894FFCFA1
:00000001FF
