:0300000002048671
:10000300C0E0C0D0C000C001C002E4F538F539F546
:100013003AF53BF53C7A20E533A2E779047830E6FC
:1000230033F608D9FA79057838E636D4F608D9F9DB
:10003300DAE5D002D001D000D0D0D0E022C0E0C0B9
:10004300D0C000C001C002E4F538F539F53AF53BFC
:10005300F53C7A20E533A2E779047830E633F608F5
:10006300D9FA79057838C0D0E6243320E70224D0C2
:1000730020E30224FDD0D033F608D9EADAD6D00241
:10008300D001D000D0D0D0E022C0E0C0D0C000C0AA
:1000930001C0027A207905C3783CE613C0D030E76B
:1000A3000224D030E30224FDF618D0D0D9EC790431
:1000B3007833E613F618D9FADADBD002D001D00090
:1000C300D0D0D0E022C0E0C0D0E5302534F530E513
:1000D300313535F531E5323536F532E5333537F53A
:1000E30033D0D0D0E022C0E0C0D0C3E5309534F5A2
:1000F30030E5319535F531E5329536F532E5339511
:1001030037F533D0D0D0E022C0E0C0D0C3E530957E
:1001130034E5319535E5329536E53395379200D0A0
:10012300D0D0E022C0E0C0D0C3E5349530E53595AA
:1001330031E5369532E53795339200D0D0D0E022C1
:10014300C0E0C0D0C200C3E53495307014E53595E6
:1001530031700EE53695327008E53795337002D26B
:1001630000D0D0D0E0221201432000030201272255
:1001730012014320000302010B22C0E0C0F0C0D0F3
:10018300C000C001C002C003E5308534F0A4F8A963
:10019300F0E5318534F0A429F9E435F0FAE530854A
:1001A30035F0A429F9E5F03AFAE433FBE532853476
:1001B300F0A42AFAE5F03BFBE5318535F0A42AFAF1
:1001C300E5F03BFBE5308536F0A42AFAE5F03BFB8E
:1001D300E5338534F0A42BFBE5328535F0A42BFB06
:1001E300E5318536F0A42BFBE5308537F0A42BFBF6
:1001F3008B338A3289318830D003D002D001D000CA
:10020300D0D0D0F0D0E022C0E0C0D0C000C001C048
:1002130002C003C0047C20E4F8F9FAFBC3E53033E1
:10022300F530E53133F531E53233F532E53333F586
:1002330033E833F8E933F9EA33FAEB33FBC3E895F0
:1002430034E99535EA9536EB95374013E89534F85C
:10025300E99535F9EA9536FAEB9537FB433001DC3E
:10026300BBD004D003D002D001D000D0D0D0E02244
:1002730085303485313585323685333722E530C5CF
:1002830034F530E531C535F531E532C536F532E5BE
:0602930033C537F53322EC
:1002990022C00078B10000D8FCD00022C000C00103
:1002A900792D78A6D8FED9FADAF6D001D00022D273
:1002B900B3120299C2B322A2E792B7A2E692B6A2FA
:1002C900E592B5A2E492B41202B8120299A2E3929D
:1002D900B7A2E292B6A2E192B5A2E092B41202B834
:1002E90022D2B20202C0C2B20202C0C2B374331235
:1002F90002EF74331202EF74321202EF7428120201
:10030900EF740C1202EF74011202EFC0027A0212AA
:1003190002A5D00222E49360061202EAA380F62223
:10032900444044800202EFC0E0E8C4540F44301254
:0D03390002EAE8540F44301202EAD0E0223C
:10034600C0E0740714120329D0E0C000A83C1203D1
:1003560030D000C000A83B120330D000C000A83A3D
:10036600120330D000C000A839120330D000C000FC
:10037600A838120330D000C0E0740714120329D045
:10038600E0E53C54F0C4600302042BC0E074201284
:1003960002EAD0E0E53C540F600302042BC0E0748F
:1003A600201202EAD0E0E53B54F0C4600302042BBD
:1003B600C0E074201202EAD0E0E53B540F6003026D
:1003C600042BC0E074201202EAD0E0E53A54F0C4EF
:1003D600600302042BC0E074201202EAD0E0E53A82
:1003E600540F600302042BC0E074201202EAD0E02E
:1003F600E53954F0C4600302042BC0E074201202F5
:10040600EAD0E0E539540F600302042BC0E0742003
:100416001202EAD0E0E53854F0C47009C0E0742056
:100426001202EAD0E022C0E0740714120329D0E0D9
:10043600C0E074201202EAD0E0C000A83B120330EC
:10044600D000C000A83A120330D000C0E0742E12CB
:1004560002EAD0E0C000A839120330D000C000A8DC
:1004660038120330D00022D2A020A0FD30A0FD22F9
:100476005465737420787820616E737765723A00DC
:1004860075817F1202F4C0E074011412032BD0E0D0
:10049600C083C082C0E090047612031ED0E0D082F2
:1004A600D083C0E074061412032BD0E0C00078019C
:1004B600120330D0007530D27531047532007533B1
:1004C600007534D775351175360075370012017D04
:1004D60012000312034612046DC0E07406141203E0
:1004E6002BD0E0C0007802120330D0007530D275F0
:1004F60031047532007533007534D775351175368C
:100506000075370012017D12000312034612046DB6
:10051600C0E074061412032BD0E0C0007803120367
:1005260030D00075305E7531FE7532557533007505
:1005360034D275350475360075370012020A12007A
:100546000312034612046DC0E074061412032BD086
:10055600E0C0007804120330D0007530D275310443
:100566007532007533007534D775351175360075DB
:1005760037001200C812000312034612046DC0E0D1
:1005860074061412032BD0E0C0007805120330D095
:10059600007530D77531117532007533007534D258
:1005A6007535047536007537001200E9120003121E
:1005B600034612046DC0E074061412032BD0E0C08B
:1005C600007806120330D0007530E87531007532B8
:1005D600007533007534E8753500753600753700DB
:1005E60012017D7534AC75358A7536007537001283
:1005F600017D753471753500753600753700120248
:0D0606000A12000312042C12046D0204A855
:00000001FF
