:100000000C9434000C943E000C943E000C943E0082
:100010000C943E000C943E000C943E000C943E0068
:100020000C943E000C943E000C943E000C943E0058
:100030000C943E000C943E000C943E000C943E0048
:100040000C943E000C943E000C943E000C943E0038
:100050000C943E000C943E000C943E000C943E0028
:100060000C943E000C943E0011241FBECFEFD8E04C
:10007000DEBFCDBF0E9440000C9457000C940000DE
:10008000209A289A28982FEF89E698E121508040FD
:100090009040E1F700C00000289A2FEF89E698E130
:1000A000215080409040E1F700C00000EBCFF89471
:0200B000FFCF80
:00000001FF
